:100000000C9430000C9400000C9400000C94000040
:100010000C9400000C9400000C9400000C94000060
:100020000C9400000C9400000C9400000C94000050
:100030000C9400000C9400000C9400000C94000040
:100040000C9400000C9400000C9400000C94000030
:100050000C9400003A0080C00200680156000000C5
:10006000F894EE27ECBBF1E0FBBFEBBFE5BF8DE002
:10007000A2E0BB27ED938A95E9F780E094E0A0E643
:10008000ED930197E9F7E8E5F0E085919591009708
:1000900061F0A591B59105901590BF01F001059013
:1000A0000D920197E1F7FB01F0CFEFE5EDBFE4E042
:1000B000EEBFC0E6D1E00C940201AA93E881E064AF
:1000C000E7B98BE18A95F1F7369A349BFECF349AE3
:1000D000E4B1F5B10C941E02AA931A930E94200277
:1000E0000E9473020E942002A0EC0E942502A981B6
:1000F000ACD10E947302A4D1A1ECA7D1A0E00E94D0
:100100008C021E2F9DD10E9482029AD1E12F18816C
:100110002DC1EFEFF3E03F0144245524E0E1F0E08E
:100120004E165F067CF5D201E8E0F0E091D111F4C3
:10013000C79801C0C79AD201E4E0F0E089D111F478
:10014000C69801C0C69AD201E2E0F0E081D111F474
:10015000C59801C0C59AF201A1E0B0E00E94000379
:10016000E03011F4C49801C0C49AA0E0A6DFE615FF
:10017000F70520F44201A0E0A0DF3F01F201319633
:100180002F01CCCFE0E0EA93A0E0E1D0D40168D128
:10019000D40172D1A4E5B0E017D1D301E8EEF3E0C9
:1001A00072D1D30174D1D3015BD1D30165D1A3E066
:1001B00084DF5F01E0E06ED1ACE4E6D0D50167D129
:1001C000D5014ED1D50158D1A1E077DF6F01E5E02F
:1001D00061D1A2E4D9D0D6015AD1D60141D1D601FC
:1001E0004BD1A2E06ADFE0936001F0936101EAE0A5
:1001F00051D1A2E5C9D051D14AD14FD131D14DD140
:100200003BD10895E0E0EABBEBBBE8EFE7BBE0E001
:10021000E8BBE4BBE5BBEFEFE1BBE0E0E2BBECE653
:10022000E3BFE0E0E2BFECBFE1EAEFBDECE0EEBD32
:10023000E0E0EDBDECBDE7BDE6BDEBBDEABDE9BD6F
:10024000E8BDE2BDEEE6E5BDE0E0E4BDE3BDE9BF4B
:10025000E5BFE4BFEAB9E0E8E8B9E0E4E7B9E7E818
:10026000E6B9E0E0E0BFEDB9E6BF0E946E02A0E1B2
:10027000BED0A1E031DFF0E0E0936601F0936701CA
:10028000A8EBBBE00E94BF0244DFA1E025DFF0E065
:10029000A0916601B0916701EA1BFB0B03D107D166
:1002A000A138E0E0BE0724F007D1EF5FF040FAD0BC
:1002B000FED0A038EFEFBE0724F4FED0E150FF4F90
:1002C000F1D0E8E0EA93A0E042D0A0916501AA2332
:1002D00042F0ABE259D0EBD0DAD0E9D0C1D0E7D0D0
:1002E00007C0ADE251D0EDD0D2D0EBD0B9D0E9D03B
:1002F000EAE0F0E00E94F202E05DAE2F45D0DCD0F3
:10030000AFEFBFEF0E94D502CDD0BECFFFCFAA93F3
:10031000E5B3EF70AE2FE881E07FEA2BE5BB8DE01F
:100320008A95F1F7AA9A8DE08A95F1F7AA988DE05F
:100330008A95F1F783C0AA93A881E9DFE881E29565
:10034000E883A881E4DF85E88A95F1F777C0AA936E
:10035000E881F0E0E859FE4FE081A981AE0FEBDFC4
:10036000E981E0936C01E881E0936D0122960895A4
:10037000A2E0ACD0ACE0DFDFA1E0A8D0E0E0E09309
:100380006D01E0936C010895AA93A881AA3031F021
:10039000E0916E01A0916C01AE1760F0E0E0EA938D
:1003A000A0916D01AF5FA0936D01D1DFA881AA304C
:1003B00009F444C0E0916C01EF5FE0936C01A89AEE
:1003C000A881B9DFA8983AC0BA93AA931A93E98191
:1003D000FA813196E983FA833197E4911E2FE03058
:1003E00019F0A12FD1DFF3CF188123960895AA9396
:1003F000E4B3E06FE4BBA29AA09AA19AAA98A89845
:10040000A998E881E0936E01E058E0936A01E881E1
:10041000E054E0936B01A4E1B0E00E94BF025BD026
:100420005AD059D0A0E273DF0BD0A8E284DFA4E059
:1004300082DFA5E880DFA6E07EDF9ADF21960895BF
:1004400088EC90E00197F1F708950E94A702F8CF99
:100450000E94ED02A1E0B0E00E940003E0300895A8
:10046000EAE0F0E00E94ED02DF01EAE0F0E00E9445
:10047000F202E05DAE2F88CFEAE0F0E00E94F202E7
:10048000E05DAE2F81CF0E94ED02DF01F5CFE4E603
:10049000F0E0F9CFEA93A1E05ACFA0916001B091CA
:1004A00061010895E0936401F09365010895A091BE
:1004B0006401B09165010895E0916401F0916501D6
:1004C0000895FADF0E94C902DF01089534DFA3E036
:1004D000B0E00C94BF02A0E31ADFB2CFC098C1987D
:1004E000B89AB99815C0B998B898EE270000B19B92
:1004F0000895B09B089504D0B99A02D0B89AE1E06B
:100500006DE007C0B99AB89A03D0B898F9DFB998E6
:100510006BE16A95F1F7089578E0B898F1DFB09B48
:10052000FECFEEDF8894B1990894B89AF1DFEE1F00
:100530007A9599F77A2F772311F4B99801C0B99A6F
:10054000DFDFB898E5DFB89ADBDFB998D9CF78E07C
:10055000AA0F10F4B99801C0B99ADADFB898D0DFC1
:10056000B09BFECFCDDFB89A7A9591F7B998C8DFE6
:10057000B898CEDFE1E0B199EE27B89AC1CF1096D6
:1005800039F080ED97E00197F1F7A8951197C9F739
:100590000895F195E195F0400895FA9FF02DEB9FB5
:1005A000F00DEA9FE02DF10D089534D0F6DF0EF442
:1005B000F0DF08950024112490E1AA0FBB1F001C56
:1005C000111C0E1A1F0A18F40E0E1F1E01C0A16086
:1005D0009A9599F7FD01D00108951CD0EBDF0EF438
:1005E000D8DF0895E894B7FF04C0A095B0951196A0
:1005F0006894F7FDCEDFDEDFFD010EF4CADF08955B
:10060000E894F7FF02C0C5DF6894EA23FB230EF4E9
:10061000C0DF0895E894F7FF02C0BBDF6894B7FF1E
:1006200006C0A095B095119600F8039400FA0895BD
:00000001FF
