:060000000C9433000C9487
:1000060000000C9400000C9400000C9400000C946A
:1000160000000C9400000C9400000C9400000C945A
:1000260000000C9400000C9400000C9400000C944A
:1000360000000C9400000C9400000C9400000C943A
:1000460000000C9400000C9400000C940000FF00CB
:1000560080C002000C00540002006A015600000035
:10006600F894EE27ECBBF1E0FBBFEBBFE5BF8DE0FC
:10007600A2E0BB27ED938A95E9F780E094E0A0E63D
:10008600ED930197E9F7E8E5F0E085919591009702
:1000960061F0A591B59105901590BF01F00105900D
:1000A6000D920197E1F7FB01F0CFEFE5EDBFE4E03C
:1000B600EEBFC0E6D1E00C94F302AA93E881E064B7
:1000C600E7B98BE18A95F1F7369A349BFECF349ADD
:1000D600E4B1F5B121960895AA931A930E94A20558
:1000E6000E947D060E94A205A0EC0E94A705A98198
:1000F6000E94A7050E947D060E94A205A1EC0E940F
:10010600A705A0E00E9496061E2F0E94A2050E9447
:100116008C060E94A205E12F188122960895BA93B3
:10012600AA930E94AA05AE81BF81EA0FFB1FEE8348
:10013600FF830E94AA05AC81BD81EA0FFB1FEC83F9
:10014600FD830E94AA05AA81BB81EA0FFB1FEA83F1
:10015600FB830E94AA05A881B981EA0FFB1FE883E9
:10016600F983AE81BF81A030E1E0BE0724F0EFEF56
:10017600F0E0EE83FF83AC81BD81A030E1E0BE07F5
:1001860024F0EFEFF0E0EC83FD83AA81BB81A03081
:10019600E1E0BE0724F0EFEFF0E0EA83FB83A881FD
:1001A600B981A030E1E0BE0724F0EFEFF0E0E8838C
:1001B600F983AE81BF81A130EFEFBE0724F4E1E001
:1001C600FFEFEE83FF83AC81BD81A130EFEFBE0769
:1001D60024F4E1E0FFEFEC83FD83AA81BB81A1302B
:1001E600EFEFBE0724F4E1E0FFEFEA83FB83A8818B
:1001F600B981A130EFEFBE0724F4E1E0FFEFE88319
:10020600F983A981AA231AF09098E88103C0909AED
:10021600E881E150ECBFAB81AA2322F09198EA81F4
:10022600FB8105C0919AEA81FB81E150FF4FF9BD40
:10023600E8BDAD81AA2322F09298EC81FD8105C02C
:10024600929AEC81FD81E150FF4FFBBDEABDAF8183
:10025600AA231AF09398EE8103C0939AEE81E15097
:10026600E3BD28960895EFEFF3E0E0936401F09381
:100276006501E0E0E0936201E09363010E94AF054F
:1002860050970CF04BC00E94AF05E8E0F0E00E94EA
:10029600B40511F4C79801C0C79A0E94AF05E4E0FF
:1002A600F0E00E94B40511F4C69801C0C69A0E94F7
:1002B600AF05E2E0F0E00E94B40511F4C59801C074
:1002C600C59AE0916201F0916301A1E0B0E00E945D
:1002D6000A07E03011F4C49801C0C49AA0E0EDDE2C
:1002E600DF01E0916401F0916501AE17BF0770F47C
:1002F600A0E0E3DEE0936401F0936501E091620122
:10030600F0916301E0936001F0936101A2E6B1E030
:10031600ED91FD913196FE93EE93B0CFE0E0EA9336
:10032600A0E00E9413050E94BC050E94C3050E941E
:10033600BC050E94CE05AAE30E943C050E94D40596
:10034600E8EEF3E00E94C3050E94D4050E94D90599
:100356000E94D4050E94DC050E94D4050E94DF0598
:10036600A1E0ABDE3F01A2E0A8DE2F01A3E0A5DEFF
:100376004F01A7E0A2DEE0936801F0936901E0E097
:100386000E94E205D4010E94D905D4010E94DC0531
:10039600D4010E94DF05E4E00E94E205D3010E9439
:1003A600D905D3010E94DC05D3010E94DF05E8E0F0
:1003B6000E94E205D2010E94D905D2010E94DC0505
:1003C600D2010E94DF05ECE00E94E2050E94E605EC
:1003D6000E94D9050E94E6050E94DC050E94E605FA
:1003E6000E94DF05F401E419F509E0936601F09334
:1003F6006701A1E071DE0E2E1124A2E0B0E00E949A
:100406002207DF01F001EA1BFB0B0E94EB050E94AD
:10041600AA05E138A0E0FA0734F00E94AA05EF5FCA
:10042600F0400E94EB050E94AA05E038AFEFFA07FC
:1004360034F40E94AA05E150FF4F0E94EB05E8E064
:10044600EA93A0E00E941305A1E0B0E00E9426070F
:10045600EE2382F0ABE20E943C050E94AA05DF0172
:100466000E94D9050E94AA05DF010E94DC050E94B0
:10047600AA0515C0ADE20E943C050E94AA050E948D
:10048600D306DF010E94D9050E94AA050E94D30661
:10049600DF010E94DC050E94AA050E94D306DF0147
:1004A6000E94DF050E94AA05AFEFBFEF0E94DF069C
:1004B6000E94EB0508950E94F005199719F40E9411
:1004C600F5053CC00E94F0051A9719F40E94F5053F
:1004D60035C00E94F0051B9729F40E9400060E9471
:1004E60006062BC00E94F0051C9739F40E940006F0
:1004F6000E941506A0E0B0E021C00E94F0051D97FD
:1005060029F40E941C060E94210617C00E94F005CD
:100516001E9741F40E941C060E940606FA93EA936F
:10052600DB010CC00E94F0051F9749F40E941506D6
:100536000E943206F6010E94D306DF01F0DD08951F
:100546000E94F005119749F4DA92CA920E94320687
:100556000E940006A0E0B0E041C00E94F00512979C
:1005660031F40E9437060E944106DF0137C00E941F
:10057600F005139759F40E944A06DF01FA93EA93AD
:100586000E940006FD01FA93EA9327C00E94F00537
:10059600149739F40E9432060E9400060E94320621
:1005A6001CC00E94F005159749F40E9441060E945E
:1005B60050060E944A06FA93EA930FC00E94F0057D
:1005C600169721F00E94F005179749F4F6010E944C
:1005D600D3060E945006DA92CA92D601A0DD08958B
:1005E600E0E0EABBEBBBE8EFE7BBE0E0E8BBE4BB7F
:1005F600E5BBEFEFE1BBE0E0E2BBEBE6E3BFE0E04B
:10060600E2BFECBFE1EAEFBDEBE0EEBDE0E0EDBD41
:10061600ECBDE7BDE6BDEBBDEABDE9BDE8BDE2BDAB
:10062600ECE6E5BDE0E0E4BDE3BDE9BFE5BFE4BF60
:10063600EAB9E0E8E8B9E0E4E7B9E7E8E6B9E0E016
:10064600E0BFEDB9E6BF0E947806A0E10E947405FE
:10065600A8EBBBE00E94C906A1E03EDDA6E0B0E043
:10066600F0E00E943207A8EEB3E00E94C9069B9B09
:1006760002C00E945506A4E0B0E00E942207A2E054
:10068600B0E00E9432070E945E062CF0E6E9F0E038
:100696006E167F060CF00AC0E1E0F0E05F010E94F2
:1006A600F5053DDDA4EFB1E00E94C906E1E0F0E00A
:1006B600EA15FB0569F40E94F005149724F00E94E0
:1006C600F0051D972CF0E8ECF0E06E167F060CF0B6
:1006D6001AC09B9B02C00E9455060E945E062CF023
:1006E600E8ECF0E06E167F060CF003C00E94F505FC
:1006F60008C00E9432060E9432060E943206A0E01E
:10070600B0E00DDDD3CFAA24BB24E6E9F0E0E61580
:10071600F70544F40E94F005149724F00E94F005B2
:100726001D970CF018C00E946506E615F7054CF4F7
:100736000E946A060E940006F6010E94D306DF01A7
:1007460008C00E9432060E9432060E943206A0E0CD
:10075600B0E0E5DCDACFE6E9F0E0E415F5051CF5F6
:100766009B9B02C00E9455060E946506E415F5058E
:1007760034F40E9400060E946A06DF0112C0A091AE
:100786006101AA2322F00E94F005199714F093DE66
:1007960009C00E9432060E9432060E943206A0E07C
:1007A600B0E0BDDCD8CFE6E9F0E0E815F9054CF499
:1007B6000E94F005189724F40E94F005109709F49A
:1007C60001C026C09B9B02C00E9455060E9465067A
:1007D600E815F90544F4DA92CA920E9400060E94CE
:1007E6000006D60113C0A0916101AA2322F00E943F
:1007F600F00519970CF002C0A3DE09C00E9432066C
:100806000E9432060E943206A0E0B0E088DCCBCF20
:100816000E94D405A538E3E0BE070CF0B6C0E0910F
:100826006001F0916101309731F40E946A06F60189
:100836000E94D306A2C00E94F005119749F4DA92ED
:10084600CA920E9432060E940006A0E0B0E09BC059
:100856000E94F005129729F40E9437060E9441066D
:1008660091C00E94F005139761F40E944A06DF01C9
:10087600FA93EA930E940006FD01FA93EA93D601E1
:1008860082C00E94F005149741F40E9432060E942D
:1008960000060E943206D60176C00E94F005159722
:1008A60051F40E9441060E9450060E944A06FA939D
:1008B600EA93D60168C00E94F005169719F40E94C3
:1008C600F50561C00E94F005179729F40E940006FD
:1008D6000E94060657C00E94F005189741F40E9430
:1008E60032060E9400060E943206D6014CC00E94C3
:1008F600F005199751F40E9441060E9450060E9485
:100906004A06FA93EA93D6013EC00E94F0051A976A
:1009160019F40E94F50537C00E94F0051B9729F4CB
:100926000E9400060E9406062DC00E94F0051C9734
:1009360039F40E9400060E941506A0E0B0E023C02C
:100946000E94F0051D9729F40E941C060E942106AC
:1009560019C00E94F0051E9741F40E941C060E94D1
:100966000606FA93EA93DB010EC00E94F0051F9774
:1009760059F40E941506E0E0F0E0FA93EA93F601D6
:100986000E94D306DF01CBDB09C00E9432060E941B
:1009960032060E943206A0E0B0E0C1DB68CEFFCF8F
:1009A600FFE0FA95F1F70895A4B3AF70A4BBA99A36
:1009B600A898F6DFAA9AF4DFA3B3AA98F1DFAA9A59
:1009C600EFDFAA98A7FDF5CF0895A07FAB2BA5BBB7
:1009D600AA9A0E94D304AA980E94D3040895AA93BF
:1009E600A998A4B3A76FA4BBB5B3BF70A881EDDF68
:1009F600A881A295EADFA99A0C94A005AA9A0E945A
:100A0600D304E3B3AA980E94D304E07F08950E941A
:100A1600D304F4DFAE2FF2DFA998E295EA2B08950E
:100A2600AA930E94D704E881F0E0E659FE4FE081E0
:100A3600A981AE0F0E94F204E981E0936E01E8817C
:100A4600E0936F01229608950E94D704A2E00E94C7
:100A5600F2040E94D704ACE00E94F2040E94D7047C
:100A6600A1E00E94F204E0E0E0936F01E0936E01E2
:100A76000895AA93EF93FF93A8816894AA3039F05A
:100A8600E894E0917001A0916E01AE1758F0E091E4
:100A96006F01EF5FE0936F01E0E0EA93A0916F01D1
:100AA600BFDF56F0E0916E01EF5FE0936E017CDFF1
:100AB600A89AA8810E94F204FF91EF910C94A005D8
:100AC600AA27BB271197F1F70895AA93A998A4B36B
:100AD600A76FA4BBB5B3BF70A8810E94E804A99A0A
:100AE6002CC0AA93AA98A898E881E0937001E058D0
:100AF600E0936C01E881E054E0936D01EDD0ECD019
:100B0600EBD0DEDFA0E2E1DFDBDFA8E2EAD0A4E0A3
:100B1600E8D0A5E8E6D0A4B3AF70A4BBA99A0E941A
:100B26000A05E53011F0E0E008C00E94D704A6E00F
:100B36000E94F2040E942705E1E02196089588ECC0
:100B460090E00197F1F708950E94B106F8CFA0E072
:100B5600B0E00E9422070895A0916201B09163015E
:100B660008950E94F706A1E0B0E00E940A07E0306F
:100B76000895A0916001B0916101EAE0F0E0089566
:100B86000E94F706DF01EAE0F0E00E94FC06E05D65
:100B9600AE2F0C943C050E94FC06E05DAE2F0C9433
:100BA6003C05A0916401B09165010895E4E6F0E08A
:100BB600E7CFEAE0F0E0E4CFEAE0F0E0ECCFEA935A
:100BC600A1E00C941305A0916801B0916901089504
:100BD600A0E0B0E00E9432070895A0916001B091B4
:100BE60061010895F6010E94D306FA93EA93FA93F7
:100BF600EA93DA92CA92D6010895F6010E94D306C4
:100C0600FA93EA930895DF01E2E0F0E00E94F70626
:100C1600FA93EA93DA92CA92D601E2E0F0E00E94F1
:100C2600F7060895E0E0F0E0FA93EA93DA92CA92C2
:100C36000895F6010E94D306BF010895FA93EA9338
:100C4600D601E2E0F0E00E94F706FA93EA93DA9220
:100C5600CA92DB01E2E0F0E00E94F7060895E0E0C8
:100C6600F0E0FA93EA930895DA92CA92D601E2E0A6
:100C7600F0E00E94F706FA93EA93BFCFF6010E94CE
:100C8600D306DF01E2E0F0E00E94F7060895D60100
:100C9600E2E0F0E00E94F7060895FA93EA93FA93E9
:100CA600EA930895A1E00E946F00A4E0B0E0F0E0AE
:100CB6000E94320708950E94360185DFA935E2E0D9
:100CC600BE0708950E943601EAEFF0E00895DA9231
:100CD600CA92DA92CA9208950E946305A0E30C9420
:100CE60068050E94F2040C946305C098C198B89AEE
:100CF600B99815C0B998B898EE270000B19B089529
:100D0600B09B089504D0B99A02D0B89AE1E06DE09C
:100D160007C0B99AB89A03D0B898F9DFB9986BE1C9
:100D26006A95F1F7089578E0B898F1DFB09BFECFA9
:100D3600EEDF8894B1990894B89AF1DFEE1F7A95A0
:100D460099F77A2F772311F4B99801C0B99ADFDFA2
:100D5600B898E5DFB89ADBDFB998D9CF78E0AA0F63
:100D660010F4B99801C0B99ADADFB898D0DFB09B11
:100D7600FECFCDDFB89A7A9591F7B998C8DFB898C3
:100D8600CEDFE1E0B199EE27B89AC1CF109639F0DF
:100D960080ED97E00197F1F7A8951197C9F70895A7
:100DA600F195E195F0400895FA9FF02DEB9FF00D37
:100DB600EA9FE02DF10D089534D0F6DF0EF4F0DF52
:100DC60008950024112490E1AA0FBB1F001C111CDA
:100DD6000E1A1F0A18F40E0E1F1E01C0A1609A9566
:100DE60099F7FD01D00108951CD0EBDF0EF4D8DF92
:100DF6000895E894B7FF04C0A095B095119668943D
:100E0600F7FDCEDFDEDFFD010EF4CADF0895E894BC
:100E1600F7FF02C0C5DF6894EA23FB230EF4C0DFA8
:100E26000895E894F7FF02C0BBDF6894B7FF06C0D9
:100E3600A095B095119600F8039400FA08951196BE
:100E460002D0FE2F1197E199FECFFF93FFB7F894DA
:100E5600AEBBBFBBE09AEDB3FFBFFF91089507D0CD
:100E66001196EF93EF2F03D0EF9111970895E19B21
:100E760002C0A895FCCF9FB7F894AEBBBFBBE09A63
:100E86008DB3E81719F0EDBBE29AE19A9FBF08957A
:00000001FF
