:060000000C942F000C948B
:1000060000000C9400000C9400000C9400000C946A
:1000160000000C9400000C9400000C9400000C945A
:1000260000000C9400000C9400000C9400000C944A
:1000360000000C9400000C9400000C9400000C943A
:1000460000000C9400000C9400000C94000080C08A
:100056000200600154000000F894EE27ECBBF1E0CA
:10006600FBBFEBBFE5BF8DE0A2E0BB27ED938A9512
:10007600E9F780E094E0A0E6ED930197E9F7E6E57D
:10008600F0E085919591009761F0A591B591059065
:100096001590BF01F00105900D920197E1F7FB0164
:1000A600F0CFEFE5EDBFE4E0EEBFC0E6D1E00C94A3
:1000B6005C00E0E0EABBEBBBECEFE7BBE0E0E8BBF3
:1000C600E8E0E4BBE0E0E5BBEFEFE1BBE0E0E2BB8C
:1000D600EBE6E3BFE0E0E2BFECBFE1EAEFBDECE058
:1000E600EEBDE0E0EDBDECBDE7BDE6BDEBBDEABDB6
:1000F600E9BDE8BDE2BDEEE6E5BDE0E0E4BDE3BD99
:10010600E9BFE5BFE4BFEAB9E0E8E8B9E0E4E7B98A
:10011600E7E8E6B9E0E0E0BFEDB9E6BF0E94F80027
:10012600A0E12CD0FFCFFFCFAA93E5B3EF70AE2F9F
:10013600E881E07FEA2BE5BB8DE08A95F1F7AA9A84
:100146008DE08A95F1F7AA988DE08A95F1F73FC080
:10015600AA93A881E9DFE881E295E883A881E4DF34
:1001660085E88A95F1F733C0A2E033D0ACE0F0DF42
:10017600A1E02FD0E0E04E2E5E2E0895AA93E4B3C0
:10018600E06FE4BBA29AA09AA19AAA98A898A99807
:100196007880E881E058E0936201E881E054E093DA
:1001A6006301A4E1B0E00E94490118D017D016D02F
:1001B600A0E2BADF88EC90E00197F1F7A8E2C8DF89
:1001C600A4E0C6DFA5E8C4DFA6E0C2DFCDDF219646
:1001D6000895BEDFA3E0B0E00C944901A0E3A4DFDC
:1001E60088EC90E00197F1F70895C098C198B89A05
:1001F600B99815C0B998B898EE270000B19B089534
:10020600B09B089504D0B99A02D0B89AE1E06DE0A7
:1002160007C0B99AB89A03D0B898F9DFB9986BE1D4
:100226006A95F1F7089578E0B898F1DFB09BFECFB4
:10023600EEDF8894B1990894B89AF1DFEE1F7A95AB
:1002460099F77A2F772311F4B99801C0B99ADFDFAD
:10025600B898E5DFB89ADBDFB998D9CF78E0AA0F6E
:1002660010F4B99801C0B99ADADFB898D0DFB09B1C
:10027600FECFCDDFB89A7A9591F7B998C8DFB898CE
:10028600CEDFE1E0B199EE27B89AC1CF109639F0EA
:1002960080ED97E00197F1F7A8951197C9F70895B2
:00000001FF
