:080000000C9430000C94000088
:100008000C9400000C9400000C9400000C94000068
:100018000C9400000C9400000C9400000C94000058
:100028000C9400000C9400000C9400000C94000048
:100038000C9400000C9400000C9400000C94000038
:100048000C9400000C9400000C9400003A0080C04E
:100058000200600156000000F894EE27ECBBF1E0C6
:10006800FBBFEBBFE5BF8DE0A2E0BB27ED938A9510
:10007800E9F780E094E0A0E6ED930197E9F7E8E579
:10008800F0E085919591009761F0A591B591059063
:100098001590BF01F00105900D920197E1F7FB0162
:1000A800F0CFEFE5EDBFE4E0EEBFC0E6D1E00C94A1
:1000B800CE00AA93E881E064E7B983E08A95F1F776
:1000C800369A349BFECF349AE4B1F5B10C94D3013F
:1000D800EFEFF3E04F0144245524EFE0F0E04E1633
:1000E8005F0694F5D201E8E0F0E00E94D50111F432
:1000F800C79801C0C79AD201E4E0F0E00E94D50198
:1001080011F4C69801C0C69AD201E2E0F0E00E945C
:10011800D50111F4C59801C0C59AF201A1E0B0E07B
:100128000E942402E03011F4C49801C0C49AA0E0EF
:10013800C0DFE815F90520F4A0E0BBDF4F0132016C
:10014800F20131962F01C9CFE0E0EA93A0E00E94C6
:100158004701D3010E94DD01D3010E94EA01A4E511
:10016800B0E00E948401D401E8EEF3E00E9411029D
:10017800DF010E94EA01D401E4E6F0E00E941102E6
:10018800DF010E94EA01D4010E94DD01D4010E942E
:10019800EA010895E0E0EABBEBBBE8EFE7BBE0E08B
:1001A800E8BBE4BBE5BBEFEFE1BBE0E0E2BBEBE6BD
:1001B800E3BFE0E0E2BFECBFE1EAEFBDEBE0EEBD9C
:1001C800E0E0EDBDECBDE7BDE6BDEBBDEABDE9BDD8
:1001D800E8BDE2BDECE6E5BDE0E0E4BDE3BDE9BFB6
:1001E800E5BFE4BFEAB9E0E8E8B9E0E4E7B9E4E884
:1001F800E6B9E0E0E0BFEDB9E6BFA0E10E94A801E2
:1002080067DFFECFFFCFFFE0FA95F1F70895A4B3BB
:10021800AF70A4BBA99AA898F6DFAA9AF4DFA3B393
:10022800AA98F1DFAA9AEFDFAA98A7FDF5CF08955B
:10023800A07FAB2BA5BBAA9A0E940701AA980E948F
:1002480007010895AA93A998A4B3A76FA4BBB5B34F
:10025800BF70A881EDDFA881A295EADFA99A0C9466
:10026800D301AA9A0E940701E3B3AA980E94070142
:10027800E07F08950E940701F4DFAE2FF2DFA9980E
:10028800E295EA2B0895AA930E940B01E881F0E019
:10029800E05AFE4FE081A981AE0F0E942601B98085
:1002A800A880229608950E940B01A2E00E942601D0
:1002B8000E940B01ACE00E9426010E940B01A1E004
:1002C8000E942601E0E0AE2EBE2E0895AA93EF9379
:1002D800FF93A8816894AA3019F0E894BD1430F00F
:1002E800A394E0E0EA93AA2DCEDF36F0B3948FDF33
:1002F800A89AA8810E942601FF91EF910C94D3013E
:10030800BA93AA931A93E981FA813196E983FA8319
:100318003197E4911E2FE03019F0A12FD7DFF3CFEA
:10032800188123960895AA27BB271197F1F70895F6
:10033800AA93A998A4B3A76FA4BBB5B3BF70A881AB
:100348000E941C01A99A2BC0AA93AA98A898D880A1
:10035800E881E058E0936201E881E054E0936301AA
:100368003DD03CD03BD0DFDFA0E2E2DFDCDFA8E21B
:1003780039D0A4E037D0A5E835D0A4B3AF70A4BB7A
:10038800A99A0E943E01E53011F0E0E008C00E9401
:100398000B01A6E00E9426010E945701E1E0219688
:1003A80008950E941102A1E0B0E00E942402E0300A
:1003B8000895EAE0F0E00E941102DF01EAE0F0E0CF
:1003C8000E941602E05DAE2F0C946A01EAE0F0E0AC
:1003D8000E941602E05DAE2F0C946A010E949701FC
:1003E800A0E3A6CF0E9426010C949701F195E19510
:1003F800F04008950024112490E1AA0FBB1F001CAF
:10040800111C0E1A1F0A18F40E0E1F1E01C0A1603F
:100418009A9599F7FD01D00108951CD0EBDF0EF4F1
:10042800E5DF0895E894B7FF04C0A095B09511964C
:100438006894F7FDDBDFDEDFFD010EF4D7DF0895FA
:10044800E894F7FF02C0D2DF6894EA23FB230EF496
:10045800CDDF0895E894F7FF02C0C8DF6894B7FFBE
:1004680006C0A095B095119600F8039400FA089577
:00000001FF
