:100000000C9433000C9400000C9400000C9400003D
:100010000C9400000C9400000C9400000C94000060
:100020000C9400000C9400000C9400000C94000050
:100030000C9400000C9400000C9400000C94000040
:100040000C9400000C9400000C9400000C94000030
:100050000C940000FF0080C0010060015400020009
:100060006A0156000000F894EE27ECBBF1E0FBBFFC
:10007000EBBFE5BF8DE0A2E0BB27ED938A95E9F7E2
:1000800080E094E0A0E6ED930197E9F7E8E5F0E081
:1000900085919591009761F0A591B5910590159086
:1000A000BF01F00105900D920197E1F7FB01F0CF40
:1000B000EFE5EDBFE4E0EEBFC0E6D1E00C945803FD
:1000C000AA93E881E064E7B98BE18A95F1F7369A63
:1000D000349BFECF349AE4B1F5B10C946904AA9331
:1000E0001A930E946B040E940B050E946B04A0EC03
:1000F0000E947004A9810E9470040E940B050E9456
:100100006B04A1EC0E947004A0E00E9424051E2F45
:100110000E946B040E941A050E946B04E12F188153
:100120000C94EE03EFEFF3E0E0936601F0936701C8
:10013000E0E0E0936401E09365010E94730450974E
:100140000CF04BC00E947304E8E0F0E00E947804D9
:1001500011F4C79801C0C79A0E947304E4E0F0E06C
:100160000E94780411F4C69801C0C69A0E947304D4
:10017000E2E0F0E00E94780411F4C59801C0C59A4D
:10018000E0916401F0916501A1E0B0E00E94980562
:10019000E03011F4C49801C0C49AA0E091DFDF01FF
:1001A000E0916601F0916701AE17BF0770F4A0E01F
:1001B00087DFE0936601F0936701E0916401F091BD
:1001C0006501E0936201F0936301A4E6B1E0ED9173
:1001D000FD913196FE93EE93B0CFE0E0EA93A0E07C
:1001E0000E94DC030E9480040E9487040E94800415
:1001F0000E949204AAE30E9405040E949804E8EE7B
:10020000F3E00E9487040E9498040E949D040E94CB
:1002100098040E94A0040E9498040E94A304A3E0F2
:100220004FDF6F01A1E04CDF5F01A2E049DF4F012A
:10023000E0E00E94A604ACE40E940504D6010E94FE
:100240009D04D6010E94A004D6010E94A304E5E00B
:100250000E94A604A2E40E940504D5010E949D0408
:10026000D5010E94A004D5010E94A304EAE00E94E7
:10027000A604A2E50E940504D4010E949D04D401B5
:100280000E94A004D4010E94A304F601E819F90910
:10029000E0936801F0936901A1E021DFF0E0E61945
:1002A000F7092F01E0E8F0E0E415F50524F4EFEF9D
:1002B000F0E04E1A5F0AE0E8FFEF4E165F0624F406
:1002C000F201E150FF4F2F01E8E0EA93A0E00E9425
:1002D000DC030024401450045CF0ABE20E940504EF
:1002E000D2010E949D04D2010E94A004D2010DC03F
:1002F000ADE20E9405040E94AA040E949D040E948F
:10030000AA040E94A0040E94AA04EAE0F0E00E946D
:100310009204F201AEEFBFEF0E946D052F01089528
:10032000BA93AA93F201AE81BF81EA0FFB1FEE835D
:10033000FF83F201AC81BD81EA0FFB1FEC83FD83DB
:10034000F201AA81BB81EA0FFB1FEA83FB83F20162
:10035000A881B981EA0FFB1FE883F983AE81BF81D1
:10036000A030E1E0BE0724F0EFEFF0E0EE83FF8382
:10037000AC81BD81A030E1E0BE0724F0EFEFF0E0FA
:10038000EC83FD83AA81BB81A030E1E0BE0724F0AD
:10039000EFEFF0E0EA83FB83A881B981A030E1E0D0
:1003A000BE0724F0EFEFF0E0E883F983AE81BF8170
:1003B000A130EFEFBE0724F4E1E0FFEFEE83FF830F
:1003C000AC81BD81A130EFEFBE0724F4E1E0FFEF87
:1003D000EC83FD83AA81BB81A130EFEFBE0724F43B
:1003E000E1E0FFEFEA83FB83A881B981A130EFEF61
:1003F000BE0724F4E1E0FFEFE883F983A981AA2393
:100400001AF09098E88103C0909AE881E150ECBF1F
:10041000AB81AA2322F09198EA81FB8105C0919AD1
:10042000EA81FB81E150FF4FF9BDE8BDAD81AA2310
:1004300022F09298EC81FD8105C0929AEC81FD81B9
:10044000E150FF4FFBBDEABDAF81AA231AF093989C
:10045000EE8103C0939AEE81E150E3BD28960895A2
:100460000E949804AC3BE2E0BE070CF0E5C0E091CE
:100470006201F0916301309739F40E94AF040E9449
:10048000AF040E94B604D1C00E94BD04119769F464
:100490000E94AF040E94B6040E94C2040E94B604E7
:1004A0000E94CA040E94D104C4C00E94BD041297D5
:1004B00049F40E94AF040E94B6040E94D6040E9430
:1004C000CA04B8C00E94BD04139769F40E94D904FD
:1004D0000E94D1040E94D6040E94D6040E94C20445
:1004E0000E94D904A7C00E94BD04149749F4E0E01B
:1004F000F0E00E94D6040E94DE040E94CA049AC062
:100500000E94BD04159751F40E94B604BF010E94D9
:10051000C2040E94E3040E94CA048CC00E94BD046D
:10052000169739F40E94B6040E94E7040E94D90489
:1005300081C00E94BD04179759F40E94B604FA9333
:10054000EA930E94C2040E94AF040E94EC0471C0AE
:100550000E94BD04189749F40E94B6040E94DE046C
:100560000E94EE04A0E0B0E065C00E94BD041997AF
:1005700051F40E94B604BF010E94C2040E94E30429
:100580000E94CA0457C00E94BD041A9739F40E9401
:10059000B6040E94E7040E94D9044CC00E94BD0426
:1005A0001B9759F40E94B604FA93EA930E94C2047E
:1005B0000E94AF040E94EC043CC00E94BD041C9742
:1005C00049F40E94B6040E94DE040E94EE04A0E0FA
:1005D000B0E030C00E94BD041D9771F40E94B604C3
:1005E0000E94CA040E94D1040E94EE040E94B60434
:1005F000DF010E94D1041DC00E94BD041E9749F472
:100600000E94B6040E94EE04E0916001F091610145
:100610000CC00E94BD041F9771F40E94B6040E9492
:10062000C2040E94AF040E94EC04FA93EA930E9471
:10063000B604DF0175DE3BC00E94F104EE0FFF1F20
:10064000E0936801F0936901E8ECF0E0AE16BF06B4
:10065000FCF40E94B6040F010E94F604EA0FFB1F8F
:10066000FA93EA93D0010E94F104AE1BBF0BBA9338
:10067000AA930E94F604E0916001F0916101EA1BE7
:10068000FB0B0E94FB040E94D904AE0FBF1F0EC0DB
:100690000E94F1040E94FB040E9461050E94FB0479
:1006A0000E946105FA93EA930E94F60439DE0895E8
:1006B000E0E0EABBEBBBE8EFE7BBE0E0E8BBE4BBB4
:1006C000E5BBEFEFE1BBE0E0E2BBEBE6E3BFE0E080
:1006D000E2BFECBFE1EAEFBDEBE0EEBDE0E0EDBD77
:1006E000ECBDE7BDE6BDEBBDEABDE9BDE8BDE2BDE1
:1006F000ECE6E5BDE0E0E4BDE3BDE9BFE5BFE4BF96
:10070000EAB9E0E8E8B9E0E4E7B9E7E8E6B9E0E04B
:10071000E0BFEDB9E6BF0E940605A0E10E943D04DE
:10072000A1E0DDDC6E2E7724A8EBBBE00E9457052C
:10073000F9DC96DEFDCFFFCFFFE0FA95F1F70895E3
:10074000A4B3AF70A4BBA99AA898F6DFAA9AF4DF65
:10075000A3B3AA98F1DFAA9AEFDFAA98A7FDF5CF75
:100760000895A07FAB2BA5BBAA9A0E949C03AA98D0
:100770000E949C030895AA93A998A4B3A76FA4BB51
:10078000B5B3BF70A881EDDFA881A295EADFA99A71
:100790000C946904AA9A0E949C03E3B3AA980E944D
:1007A0009C03E07F08950E949C03F4DFAE2FF2DFEC
:1007B000A998E295EA2B0895AA930E94A003E881E4
:1007C000F0E0E659FE4FE081A981AE0F0E94BB0325
:1007D000E981E0936E01E881E0936F01229608952C
:1007E0000E94A003A2E00E94BB030E94A003ACE011
:1007F0000E94BB030E94A003A1E00E94BB03E0E0B3
:10080000E0936F01E0936E010895AA93EF93FF9335
:10081000A8816894AA3039F0E894E0917001A09121
:100820006E01AE1758F0E0916F01EF5FE0936F013A
:10083000E0E0EA93A0916F01BFDF56F0E0916E0116
:10084000EF5FE0936E017CDFA89AA8810E94BB0352
:10085000FF91EF910C946904AA27BB271197F1F738
:100860000895AA93A998A4B3A76FA4BBB5B3BF700A
:10087000A8810E94B103A99A2CC0AA93AA98A8980B
:10088000E881E0937001E058E0936C01E881E05466
:10089000E0936D01B3D0B2D0B1D0DEDFA0E2E1DFF2
:1008A000DBDFA8E2AFD0A4E0ADD0A5E8ABD0A4B325
:1008B000AF70A4BBA99A0E94D303E53011F0E0E029
:1008C00008C00E94A003A6E00E94BB030E94F003A0
:1008D000E1E02196089588EC90E00197F1F7089502
:1008E0000E943F05F8CFA0916401B0916501089581
:1008F0000E948505A1E0B0E00E949805E0300895CF
:10090000A0916201B0916301EAE0F0E008950E94D5
:100910008505DF01EAE0F0E00E948A05E05DAE2F88
:100920000C9405040E948A05E05DAE2F0C9405042A
:10093000A0916601B09167010895E4E6F0E0E7CF89
:10094000EAE0F0E0E4CFEAE0F0E0ECCFEA93A1E007
:100950000C94DC03F2010E946105DF010895E0912F
:100960006001F0916101FA93EA930895E0916001CA
:10097000F09161010E9461050895A0916201B0911A
:1009800063010895DF01E2E0F0E00E948505FA933B
:10099000EA930895FA93EA93A0916001B0916101FE
:1009A0000895E2E0F0E00E9485050895FA93EA9345
:1009B000DDCFA0916001B09161010895FA93EA93AF
:1009C000E0E0F0E008957A936A93F3DFEACFFA93D8
:1009D000EA93FA93EA93C3CFECDFE3CFFA93EA9377
:1009E000BECFE0916801F09169010895A09168017E
:1009F000B09169010895FA93EA93F3CF0E942C0411
:100A0000A0E32FCF0E94BB030C942C04C098C19884
:100A1000B89AB99815C0B998B898EE270000B19B5C
:100A20000895B09B089504D0B99A02D0B89AE1E035
:100A30006DE007C0B99AB89A03D0B898F9DFB998B1
:100A40006BE16A95F1F7089578E0B898F1DFB09B13
:100A5000FECFEEDF8894B1990894B89AF1DFEE1FCB
:100A60007A9599F77A2F772311F4B99801C0B99A3A
:100A7000DFDFB898E5DFB89ADBDFB998D9CF78E047
:100A8000AA0F10F4B99801C0B99ADADFB898D0DF8C
:100A9000B09BFECFCDDFB89A7A9591F7B998C8DFB1
:100AA000B898CEDFE1E0B199EE27B89AC1CF1096A1
:100AB00039F080ED97E00197F1F7A8951197C9F704
:100AC0000895F195E195F0400895FA9FF02DEB9F80
:100AD000F00DEA9FE02DF10D089534D0F6DF0EF40D
:100AE000F0DF08950024112490E1AA0FBB1F001C21
:100AF000111C0E1A1F0A18F40E0E1F1E01C0A16051
:100B00009A9599F7FD01D00108951CD0EBDF0EF402
:100B1000D8DF0895E894B7FF04C0A095B09511966A
:100B20006894F7FDCEDFDEDFFD010EF4CADF089525
:100B3000E894F7FF02C0C5DF6894EA23FB230EF4B4
:100B4000C0DF0895E894F7FF02C0BBDF6894B7FFE9
:100B500006C0A095B095119600F8039400FA089588
:00000001FF
