:040000000C94380024
:100004000C9400000C9400000C9400000C9400006C
:100014000C9400000C9400000C9400000C9400005C
:100024000C9400000C9400000C9400000C9400004C
:100034000C9400000C9400000C9400000C9400003C
:100044000C9400000C9400000C9400000C9400002C
:100054001027E80364000A000100001000011000EA
:10006400010080C00200600166000000F894EE27E1
:10007400ECBBF1E0FBBFEBBFE5BF8DE0A2E0BB272B
:10008400ED938A95E9F780E094E0A0E6ED9301977B
:10009400E9F7E8E6F0E085919591009761F0A59184
:1000A400B59105901590BF01F00105900D9201974F
:1000B400E1F7FB01F0CFEFE5EDBFE4E0EEBFC0E612
:1000C400D1E00C946500E0E0EABBEBBBE8EFE7BBF2
:1000D400E0E0E8BBE4BBE5BBEFEFE1BBE0E0E2BBA3
:1000E400ECE6E3BFE0E0E2BFECBFE1EAEFBDECE049
:1000F400EEBDE0E0EDBDECBDE7BDE6BDEBBDEABDA8
:10010400E9BDE8BDE2BDEEE6E5BDE0E0E4BDE3BD8A
:10011400E9BFE5BFE4BFEAB9E0E8E8B9E0E4E7B97C
:10012400E7E8E6B9E0E0E0BFEDB9E6BF66D0A0E1FC
:100134002ED0FFCFFFCF1A931A2FE5B3EF70AE2F57
:10014400E12FE07FEA2BE5BB8DE08A95F1F7AA9ACF
:100154008DE08A95F1F7AA988DE08A95F1F740C071
:10016400AA93A881E8DFE881E295E883A881E3DF28
:1001740085E88A95F1F721960895A2E033D0ACE0A2
:10018400EFDFA1E02FD0E0E0AE2EBE2E08951A934B
:100194001A2FE4B3E06FE4BBA29AA09AA19AAA989A
:1001A400A898A998D12EE12FE058E0936201E12F9D
:1001B400E054E0936301A4E1B0E070D017D016D00E
:1001C40015D0A0E2B8DF88EC90E00197F1F7A8E23F
:1001D400C7DFA4E0C5DFA5E8C3DFA6E0C1DFCDDF4C
:1001E40019910895BDDFA3E0B0E058C0A0E3A3DFF8
:1001F40088EC90E00197F1F70895C098C198B89AF7
:10020400B99815C0B998B898EE270000B19B089525
:10021400B09B089504D0B99A02D0B89AE1E06DE099
:1002240007C0B99AB89A03D0B898F9DFB9986BE1C6
:100234006A95F1F7089578E0B898F1DFB09BFECFA6
:10024400EEDF8894B1990894B89AF1DFEE1F7A959D
:1002540099F77A2F772311F4B99801C0B99ADFDF9F
:10026400B898E5DFB89ADBDFB998D9CF78E0AA0F60
:1002740010F4B99801C0B99ADADFB898D0DFB09B0E
:10028400FECFCDDFB89A7A9591F7B998C8DFB898C0
:10029400CEDFE1E0B199EE27B89AC1CF109639F0DC
:1002A400A89580ED97E00197F1F71197C9F70895A4
:00000001FF
