:0C0000000C9434000C9400000C940000E0
:10000C000C9400000C9400000C9400000C94000064
:10001C000C9400000C9400000C9400000C94000054
:10002C000C9400000C9400000C9400000C94000044
:10003C000C9400000C9400000C9400000C94000034
:10004C000C9400000C94000096003A0080C0020052
:10005C00040054000200600158000000F894EE27E0
:10006C00ECBBF1E0FBBFEBBFE5BF8DE0A2E0BB2733
:10007C00ED938A95E9F780E094E0A0E6ED93019783
:10008C00E9F7EAE5F0E085919591009761F0A5918B
:10009C00B59105901590BF01F00105900D92019757
:1000AC00E1F7FB01F0CFEFE5EDBFE4E0EEBFC0E61A
:1000BC00D1E00C947201AA93E881E064E7B983E083
:1000CC008A95F1F7369A349BFECF349AE4B1F5B1A8
:1000DC000C946903EFEFF3E04F0166247724E0E121
:1000EC00F0E06E167F0694F5D301E8E0F0E00E9494
:1000FC006B0311F4C79801C0C79AD301E4E0F0E098
:10010C000E946B0311F4C69801C0C69AD301E2E0B9
:10011C00F0E00E946B0311F4C59801C0C59AF3017D
:10012C00A1E0B0E00E94EA03E03011F4C49801C0F1
:10013C00C49AA0E0C0DFE815F90520F45301A0E053
:10014C00BADF4F01F30131963F01C9CFE0E0EA93EA
:10015C00A0E00E94DA02D501EAE0F0E00E94D703A9
:10016C000E947303D5010E947703A6E5B0E00E94BC
:10017C001903D401E8EEF3E00E947C03D401E4E619
:10018C00F0E00E947C03D401EAE0F0E00E947C03E2
:10019C00D4010E9477030895BA93AA93A881B981D8
:1001AC00A030E1E0BE0724F0EFEFF0E0E883F98344
:1001BC00AA81BB81A030E1E0BE0724F0EFEFF0E0B4
:1001CC00EA83FB83AC81BD81A030E1E0BE0724F063
:1001DC00EFEFF0E0EC83FD83AE81BF81A030E1E076
:1001EC00BE0724F0EFEFF0E0EE83FF83A881B98126
:1001FC00A130EFEFBE0724F4E1E0FFEFE883F983D1
:10020C00AA81BB81A130EFEFBE0724F4E1E0FFEF40
:10021C00EA83FB83AC81BD81A130EFEFBE0724F4F0
:10022C00E1E0FFEFEC83FD83AE81BF81A130EFEF06
:10023C00BE0724F4E1E0FFEFEE83FF83A881B981D0
:10024C000E9402041CF49098E88108C0A881B9812E
:10025C000E94020424F0909AE881E150ECBFAA813C
:10026C00BB810E94020424F49198EA81FB810AC0AC
:10027C00AA81BB810E9402043CF0919AEA81FB8125
:10028C00E150FF4FF9BDE8BDAC81BD810E94020475
:10029C0024F49298EC81FD810AC0AC81BD810E944E
:1002AC0002043CF0929AEC81FD81E150FF4FFBBDC2
:1002BC00EABDAE81BF810E9402041CF49398EE81CA
:1002CC0008C0AE81BF810E94020424F0939AEE8193
:1002DC00E150E3BD28960895E0E0EABBEBBBE8EF04
:1002EC00E7BBE0E0E8BBE4BBE5BBEFEFE1BBE0E084
:1002FC00E2BBEBE6E3BFE0E0E2BFECBFE1EAEFBD5F
:10030C00EBE0EEBDE0E0EDBDECBDE7BDE6BDEBBD69
:10031C00EABDE9BDE8BDE2BDECE6E5BDE0E0E4BD6B
:10032C00E3BDE9BFE5BFE4BFEAB9E0E8E8B9E0E462
:10033C00E7B9E4E8E6B9E0E0E0BFEDB9E6BFA0E17B
:10034C000E943D03C7DEE0E9F1E08E169F060CF03B
:10035C00E0C00A2C0B2829F45A924A920E9480037E
:10036C00D0C0E1E0F0E0EA15FB0539F45A924A926C
:10037C000E948603A0E0B0E0CAC0E2E0F0E0EA151B
:10038C00FB0549F40E9480030E9490030E9498038D
:10039C000E949F03BBC0E3E0F0E0EA15FB0539F4D3
:1003AC000E948003FA93EA930E949803B0C0E4E0A1
:1003BC00F0E0EA15FB0571F4D2010E949F03FA9359
:1003CC00EA930E94A403F2010E94C0030E949003CE
:1003DC00D2019DC0E5E0F0E0EA15FB0531F40E9486
:1003EC0086030E94AA03D20192C0E6E0F0E0EA156F
:1003FC00FB0569F40E94AF030E9490037A936A9301
:10040C00D2010E949F03FA93EA93D20180C0E7E0E5
:10041C00F0E0EA15FB0541F40E94A403FA93EA9379
:10042C005A924A92D20173C0E8E0F0E0EA15FB055B
:10043C0039F40E94A4030E9490030E94B40366C086
:10044C00E9E0F0E0EA15FB0541F40E94A403FA93FD
:10045C00EA935A924A92D2015AC0EAE0F0E0EA15C5
:10046C00FB0539F40E94A4030E9490030E94B4037C
:10047C004DC0EBE0F0E0EA15FB0549F40E94A40343
:10048C000E94AA035A924A92A0E0B0E040C0ECE06D
:10049C00F0E0EA15FB0579F40E94AF03FA93EA93B6
:1004AC00D2010E949F03FA93EA935A924A92DB017B
:1004BC000E949F032BC0EDE0F0E0EA15FB0539F438
:1004CC000E94A4035A924A925A924A921FC0EEE09A
:1004DC00F0E0EA15FB0551F40E94AF030E94900373
:1004EC000E94B403FA93EA93DB0111C0EFE0F0E051
:1004FC00EA15FB0569F40E94AA035A924A92E0E0BD
:10050C00F0E0FA93EA93F2010E94C003DF0144DEAB
:10051C0009C00E94AA030E94AA030E94AA03A0E099
:10052C00B0E03ADE0FCFFFCFFFE0FA95F1F7089578
:10053C00A4B3AF70A4BBA99AA898F6DFAA9AF4DF6B
:10054C00A3B3AA98F1DFAA9AEFDFAA98A7FDF5CF7B
:10055C000895A07FAB2BA5BBAA9A0E949A02AA98D9
:10056C000E949A020895AA93A998A4B3A76FA4BB5A
:10057C00B5B3BF70A881EDDFA881A295EADFA99A77
:10058C000C946903AA9A0E949A02E3B3AA980E9457
:10059C009A02E07F08950E949A02F4DFAE2FF2DFF8
:1005AC00A998E295EA2B0895AA930E949E02E881ED
:1005BC00F0E0E05AFE4FE081A981AE0F0E94B90233
:1005CC00D980C880229608950E949E02A2E00E94C3
:1005DC00B9020E949E02ACE00E94B9020E949E02E7
:1005EC00A1E00E94B902E0E0CE2EDE2E0895AA937F
:1005FC00EF93FF93A8816894AA3029F0E894E091D6
:10060C006401DE1630F0C394E0E0EA93AC2DCCDF4D
:10061C0036F0D3948DDFA89AA8810E94B902FF917D
:10062C00EF910C946903BA93AA931A93E981FA8116
:10063C003196E983FA833197E4911E2FE03019F05B
:10064C00A12FD5DFF3CF188123960895AA27BB27B6
:10065C001197F1F70895AA93A998A4B3A76FA4BB17
:10066C00B5B3BF70A8810E94AF02A99A2CC0AA93FF
:10067C00AA98A898E881E0936401E058E09362019D
:10068C00E881E054E09363016DD06CD06BD0DEDF79
:10069C00A0E2E1DFDBDFA8E269D0A4E067D0A5E847
:1006AC0065D0A4B3AF70A4BBA99A0E94D102E53067
:1006BC0011F0E0E008C00E949E02A6E00E94B90280
:1006CC000E94EA02E1E0219608950E94D703A1E07E
:1006DC00B0E00E94EA03E0300895E05DAE2F0C9488
:1006EC00FD02EAE0F0E00E94DC03F7CF0E94D703A2
:1006FC00DF01F7CF5A924A92F2010E94C00308958B
:10070C00E0E0F0E0FA93EA93F2010E94C003FA935E
:10071C00EA930895DF01E2E0F0E00E94D703FA9338
:10072C00EA930895F2010E94C003FA93EA93D2016E
:10073C000895E2E0F0E00E94D7030895F2010E94D0
:10074C00C003FA93EA930895E0E0F0E0FA93EA9399
:10075C000895F2010E94C003BF0108955A924A9273
:10076C00D201E7CF0E942C03A0E375CF0E94B902FF
:10077C000C942C03F195E195F0400895002411247C
:10078C0090E1AA0FBB1F001C111C0E1A1F0A18F4B3
:10079C000E0E1F1E01C0A1609A9599F7FD01D001A4
:1007AC0008951CD0EBDF0EF4E5DF0895E894B7FF55
:1007BC0004C0A095B09511966894F7FDDBDFDEDFE1
:1007CC00FD010EF4D7DF0895E894F7FF02C0D2DFE5
:1007DC006894EA23FB230EF4CDDF0895E894F7FF29
:1007EC0002C0C8DF6894B7FF06C0A095B0951196FB
:1007FC0000F8039400FA089500240A160B060895D5
:00000001FF
