:0C0000000C943A000C9400000C940000DA
:10000C000C9400000C9400000C9400000C94000064
:10001C000C9400000C9400000C9400000C94000054
:10002C000C9400000C9400000C9400000C94000044
:10003C000C9400000C9400000C9400000C94000034
:10004C000C9400000C94000096005400583D00598C
:10005C003D0080C001006601540001006A01560099
:10006C00020079015E000000F894EE27ECBBF1E091
:10007C00FBBFEBBFE5BF8DE0A2E0BB27ED938A95FC
:10008C00E9F780E094E0A0E6ED930197E9F7E0E66C
:10009C00F0E085919591009761F0A591B59105904F
:1000AC001590BF01F00105900D920197E1F7FB014E
:1000BC00F0CFEFE5EDBFE4E0EEBFC0E6D1E00C948D
:1000CC00C504AA93E881E064E7B98BE18A95F1F75E
:1000DC00369A349BFECF349AE4B1F5B1219608954B
:1000EC001A930E94BA07A8EA0E94EE07A0916A012F
:1000FC00E8E00E941408AE2F0E94EE07A0916A015E
:10010C000E94EE070E94BA07A9EA0E94EE07A0E03F
:10011C000E94D3071E2F0E94C907E12F1991089541
:10012C00AA931A930E94C9060E94BA070E94C90694
:10013C00A0EC0E94CE06A9810E94CE060E94BA07AE
:10014C000E94C906A1EC0E94CE06A0E00E94D30733
:10015C001E2F0E94C9060E94C9070E94C906E12FE2
:10016C001881229608950E94D106AA3A09F05CC023
:10017C000E94D106A53509F057C0B2DFB1DFF0E01F
:10018C000E94D806AFEFEA9FF001A0917301B091E5
:10019C007401EA0FFB1F0E94D806F0E00E94DE06F5
:1001AC00AFEFEA9FF001A0917501B0917601EA0FD3
:1001BC00FB1F0E94DE06F0E00E94E406AFEFEA9F10
:1001CC00F0010E94EA06EA0FFB1F0E94E406F0E031
:1001DC000E94EF06AFEFEA9FF0010E94F506EA0FCE
:1001EC00FB1F0E94EF06F0E00E94FA06AFEFEA9FB9
:1001FC00F001A0916F01B0917001EA0FFB1F0E94FA
:10020C00FA06F0E0E0937101F093720169DFAFEF51
:10021C00EA9FF001A0917101B0917201EA0FFB1FEE
:10022C00E0937101F0937201E0E00E940007A8E5F1
:10023C00B0E00E9477060E94EA060E9404070E9422
:10024C00EA060E9411070E94EA060E941E07E6E0D9
:10025C000E940007ABE5B0E00E9477060E94F5060D
:10026C000E9404070E94F5060E9411070E94F506E1
:10027C000E941E070895A8959B9B07C0A1E050DF24
:10028C00A0E0B0E0F0E00E946D08A895A1E019DFB5
:10029C003F01A2E016DF2F01A3E013DF4F01A4E022
:1002AC0010DF5F01A5E00DDFE0936001F0936101C9
:1002BC00A7E007DF6F01A6E004DFE0936201F09393
:1002CC006301A895ECE00E942607D6010E94040762
:1002DC00D6010E941107D6010E941E07E8E00E9479
:1002EC0026070E942A070E9404070E942A070E94E0
:1002FC0011070E942A070E941E07E4E00E942607AD
:10030C000E942F070E9404070E942F070E941107CA
:10031C000E942F070E941E07E0E00E942607D501CD
:10032C000E940407D5010E941107D5010E941E07E7
:10033C00F401E419F509E0936801F0936901A895BB
:10034C00A1E0EEDE0E2E1124A0E0B0E00E945D08CC
:10035C00D001AE1BBF0BA0936401B0936501841454
:10036C00950424F40E943407D3970CF404C0D201F2
:10037C00E0E2F0E00DC08414950434F00E943407E0
:10038C00AE3CEFEFBE070CF00DC0D401EAE0F0E09C
:10039C000E943C080E943907E8ECF0E0E09366010B
:1003AC00F09367010E943E07A138E0E0BE0734F0ED
:1003BC000E944307EF5FF0400E9439070E943E07FE
:1003CC00A038EFEFBE0734F40E944307E150FF4F13
:1003DC000E943907E6E9F0E06E167F0654F4EAEF66
:1003EC00F0E0E415F5052CF4E6E9F0E04E165F06B6
:1003FC000CF002C0F20111C0E6E9F0E06E167F06C7
:10040C0054F4EAEFF0E0E815F9052CF4E6E9F0E035
:10041C008E169F060CF010C0F401A3E0B0E00E9411
:10042C002408DF01E4E1F0E00E943C080E943E0752
:10043C00EA0FFB1F0E943907EBE00E940007A09116
:10044C006501AA2372F0ABE20E9450060E943E079F
:10045C000E9404070E943E070E9411070E943E075B
:10046C000DC0ADE20E9450060E9448070E9404078E
:10047C000E9448070E9411070E944807EAE0F0E03A
:10048C000E944108E05DAE2F0E9450060E943E077C
:10049C00E1EFFFEFEA17FB0724F40E943E071F97DA
:1004AC000CF005C00E944307ADEFBFEF04C00E94E3
:1004BC004307AEEFBFEF0E9424080E94390708954E
:1004CC00BA93AA93D8DEA8950E944307AE81BF8148
:1004DC00EA0FFB1FEE83FF830E944307AC81BD81B3
:1004EC00EA0FFB1FEC83FD830E944307AA81BB81AB
:1004FC00EA0FFB1FEA83FB830E944307A881B981A3
:10050C00EA0FFB1FE883F983AE81BF81A030E1E0E5
:10051C00BE0724F0EFEFF0E0EE83FF83AC81BD81EA
:10052C00A030E1E0BE0724F0EFEFF0E0EC83FD83B8
:10053C00AA81BB81A030E1E0BE0724F0EFEFF0E030
:10054C00EA83FB83A881B981A030E1E0BE0724F0E7
:10055C00EFEFF0E0E883F983AE81BF81A130EFEFDC
:10056C00BE0724F4E1E0FFEFEE83FF83AC81BD8195
:10057C00A130EFEFBE0724F4E1E0FFEFEC83FD8345
:10058C00AA81BB81A130EFEFBE0724F4E1E0FFEFBD
:10059C00EA83FB83A881B981A130EFEFBE0724F475
:1005AC00E1E0FFEFE883F983A981AA2322F0A89563
:1005BC009098E88104C0A895909AE881E150ECBF2E
:1005CC00AB81AA232AF0A8959198EA81FB8106C0F9
:1005DC00A895919AEA81FB81E150FF4FF9BDE8BDE6
:1005EC00AD81AA232AF0A8959298EC81FD8106C0D2
:1005FC00A895929AEC81FD81E150FF4FFBBDEABDBD
:10060C00AF81AA2322F0A8959398EE8104C0A895F7
:10061C00939AEE81E150E3BD28960895BA93AA937C
:10062C00E881F981309739F40E944D070E944D07FB
:10063C000E945407D2C0A881B981119759F40E9425
:10064C004D070E945B070E9464070E9464070E948A
:10065C006707C7C0A881B981129749F40E944D075A
:10066C00E0E0F0E00E9464070E946D07BBC0A88127
:10067C00B981139769F40E944D070E9454070E9498
:10068C0067070E946407FA93EA930E945B07A9C06C
:10069C00A881B981149749F40E944D070E94540710
:1006AC000E9464070E9472079DC0A881B9811597AA
:1006BC0059F40E945B070E9464070E9464070E9421
:1006CC0067070E9472078EC0A881B981169749F4FA
:1006DC00E0E0F0E00E9464070E9479070E94720734
:1006EC0081C0A881B981179771F40E945407BF018A
:1006FC000E946707FA93EA937A936A930E945B07C6
:10070C000E9472076FC0A881B981189739F40E94B2
:10071C0054070E947E070E94830764C0A881B98198
:10072C00199759F40E945407FA93EA930E946707A9
:10073C000E9488070E945B0754C0A881B9811A9750
:10074C0049F40E9454070E9479070E948807A0E090
:10075C00B0E048C0A881B9811B9769F40E94540786
:10076C00FA93EA930E945B070E9488070E94540741
:10077C000E94670736C0A881B9811C9739F40E9482
:10078C0054070E9488070E948B0727C0A881B98153
:10079C001D9749F40E9454070E9467070E9488071E
:1007AC000E94830716C0A881B9811E9739F4E0E036
:1007BC00F0E00E948807E0E0F0E00FC0A881B9816A
:1007CC001F9789F40E945B070E9488070E945407B8
:1007DC00DF01E2E0F0E00E943C08FA93EA930E9409
:1007EC005407DF016DDE0C943906E0917701E0309F
:1007FC0009F47EC00E94F506DC97BCF00E94EA0664
:10080C00D39714F4AEE00EC00E94EA06D3971CF006
:10081C000E9490070CF002C0A0E004C00E94900758
:10082C001CF0A2E0B0E0FADE62C00E94F506DC9794
:10083C0024F40E94F5061D970CF435C00E94EA06BC
:10084C00D39714F4AEE02CC00E94EA06D39734F090
:10085C000E94EA06A937E0E0BE070CF002C0AFE048
:10086C001FC00E94EA06A937E0E0BE0734F00E94E0
:10087C00EA06AB3AE0E0BE070CF002C0A0E010C004
:10088C000E94EA06AB3AE0E0BE071CF00E9490071B
:10089C000CF002C0A1E004C00E9490071CF0A2E082
:1008AC00B0E0BCDE24C00E94F5061D9704F50E9442
:1008BC00EA06A338E0E0BE0714F4AFE016C00E94CD
:1008CC00EA06A338E0E0BE0734F00E94EA06A13A3B
:1008DC00E0E0BE070CF002C0A0E007C00E94EA06F0
:1008EC00A13AE0E0BE071CF0A1E0B0E097DE46C004
:1008FC000E949507EE0FFF1FE0936801F0936901CA
:10090C00E8ECF0E06E167F06BCF40E9454070F0171
:10091C000E943407EA0FFB1FFA93EA93D0010E945E
:10092C009A070E94A007FA93EA930E9495070E94E7
:10093C008307AE0FBF1F21C0E0E9F1E0E615F70514
:10094C00B4F40E9495070E948307EA0FFB1FFA93E9
:10095C00EA930E94A0070E946407DF010E949A0795
:10096C000E9454070E943407AE0FBF1F06C00E949E
:10097C00A5070E9479070E946D07A2DD0895A8952E
:10098C00E0E0EABBEBBBE8EFE7BBE0E0E8BBE4BBD5
:10099C00E5BBEFEFE1BBE0E0E2BBECE6E3BFE0E0A0
:1009AC00E2BFECBFE1EAEFBDECE0EEBDE0E0EDBD97
:1009BC00ECBDE7BDE6BDEBBDEABDE9BDE8BDE2BD02
:1009CC00EEE6E5BDE0E0E4BDE3BDE9BFE5BFE4BFB5
:1009DC00EAB9E0E8E8B9E0E4E7B9E7E8E6B9E0E06D
:1009EC00E0BFEDB9E6BF0E94B507A0E10E949B06EF
:1009FC00ECE0E1BDEFEFF0E0E0936601F09367010E
:100A0C00A8950E94A8070E942A07A935E2E0BE0714
:100A1C0064F40E942F07A935E2E0BE0734F4E8E540
:100A2C00F2E0EC15FD050CF058C00E942F07A9351B
:100A3C00E2E0BE07F4F0E4EFF1E0E815F9055CF450
:100A4C000E944D070E9454070E9464070E9472077F
:100A5C0037DDECE40BC00E9454070E9488070E940B
:100A6C004D070E945407DF012BDDE2E5E09378018E
:100A7C0033C0E8E5F2E0EC15FD05F4F4E4EFF1E049
:100A8C00E415F50564F40E9454070E9488070E943F
:100A9C004D070E945407DF0113DDE2E50AC00E94F6
:100AAC004D070E9454070E9464070E94720708DDDC
:100ABC00ECE4E093780110C00E942A07A935E2E02B
:100ACC00BE0754F00E944D070E944D070E94540728
:100ADC000E946407DF01F4DC72C0A0917801A2359A
:100AEC0021F4A0917701A03009F419C00E94A80745
:100AFC00ECE2F1E0E415F50554F40E9454070E9471
:100B0C0088070E944D070E945407DF0106C00E940F
:100B1C00A5070E9479070E946D07D2DCDECFA09159
:100B2C007801AC3421F4A0917701A03009F418C0FD
:100B3C000E94A807ECE2F1E0E815F9054CF40E94DC
:100B4C004D070E9454070E9464070E94720706C05A
:100B5C000E94A5070E9479070E946D07B1DCDFCFC8
:100B6C00E8E5F2E0EA15FB0524F4A0917801A03049
:100B7C0009F00EC00E9454070E947E070E94830752
:100B8C009FDCACE2B1E00E940608E6E4E093780159
:100B9C00A0917801A63421F4A0917701A03009F43A
:100BAC000AC00E94A8070E94A5070E9479070E940C
:100BBC006D0786DCEDCF19DEE0E0E093780120CF05
:100BCC00FFCFFFE0FA95F1F70895A4B3AF70A4BB83
:100BDC00A99AA898F6DFAA9AF4DFA3B3AA98F1DF32
:100BEC00AA9AEFDFAA98A7FDF5CF0895A07FAB2BAB
:100BFC00A5BBAA9A0E94E705AA980E94E70508954A
:100C0C00AA93A998A4B3A76FA4BBB5B3BF70A881CE
:100C1C00EDDFA881A295EADFA99A0C94C706AA9ADF
:100C2C000E94E705E3B3AA980E94E705E07F0895C8
:100C3C000E94E705F4DFAE2FF2DFA998E295EA2BCC
:100C4C000895AA930E94EB05E881F0E0E758FE4F67
:100C5C00E081A981AE0F0E940606E981E0937D0137
:100C6C00E881E0937E01229608950E94EB05A2E0B4
:100C7C000E9406060E94EB05ACE00E9406060E944C
:100C8C00EB05A1E00E940606E0E0E0937E01E09314
:100C9C007D010895AA93EF93FF93A8816894AA30DD
:100CAC0039F0E894E0917F01A0917D01AE1758F0E6
:100CBC00E0917E01EF5FE0937E01E0E0EA93A0918A
:100CCC007E01BFDF56F0E0917D01EF5FE0937D0187
:100CDC007CDFA89AA8810E940606FF91EF910C94E4
:100CEC00C706BA93AA931A93E981FA813196E983DC
:100CFC00FA833197E4911E2FE03019F0A12FCADF4F
:100D0C00F3CF188123960895AA27BB271197F1F7E3
:100D1C000895AA93A998A4B3A76FA4BBB5B3BF7049
:100D2C00A8810E94FC05A99A2CC0AA93AA98A898FD
:100D3C00E881E0937F01E058E0937B01E881E05487
:100D4C00E0937C0103D102D101D1DEDFA0E2E1DF2F
:100D5C00DBDFA8E200D1A4E0FED0A5E8FCD0A4B370
:100D6C00AF70A4BBA99A0E941E06E53011F0E0E01A
:100D7C0008C00E94EB05A6E00E9406060E943B06F6
:100D8C00E1E02196089588EC90E00197F1F7089541
:100D9C000E94EE07F8CF0E947600E0937701A091B5
:100DAC0077010895E0937301F09374010C9476002D
:100DBC00E0937501F09376010C947600E0936B014F
:100DCC00F0936C010C947600A0916B01B0916C01C6
:100DDC000895E0936D01F0936E010C947600A09150
:100DEC006D01B0916E010895E0936F01F093700165
:100DFC000C947600EA93A0E00C942706E4E6F0E06D
:100E0C000E943C08DF01EAE0F0E00E944108E05D4E
:100E1C00AE2F0C945006EAE0F0E00E943C08DF0193
:100E2C00EAE0F0E00E944108E05DAE2F0C94500621
:100E3C00EAE0F0E00E944108E05DAE2F0C94500611
:100E4C00EA93A1E00C942706A0916201B091630192
:100E5C000895A0916001B09161010895A09168017D
:100E6C00B09169010895E0936401F09365010895D0
:100E7C00A0916401B09165010895E0916401F09135
:100E8C0065010895FADF0E941008DF010895E091D2
:100E9C006601F0916701FA93EA930895E091660177
:100EAC00F09167010E9410080895A0916601B0911D
:100EBC006701E2E0F0E00E943C080895FA93EA939F
:100ECC00EDCFDF01E2E0F0E00E943C080895FA93D8
:100EDC00EA93A0E0B0E00895FA93EA93A09166013A
:100EEC00B09167010895FA93EA93E0E0F0E0089579
:100EFC00FA93EA93FA93EA93CACFA0916601B09160
:100F0C0067010895FA93EA93C2CFE0916601F091DC
:100F1C006701089559DFAD3DE0E0BE070895E0910B
:100F2C006801F09169010895FADFAE1BBF0BBA930B
:100F3C00AA93089593DFE9DFEA1BFB0B0895E0E029
:100F4C00F0E0D1CF0E9441010C94B9000E948A06B6
:100F5C00A0E30C948F060E9406060C948A06C09897
:100F6C00C198B89AB99815C0B998B898EE270000EE
:100F7C00B19B0895B09B089504D0B99A02D0B89A49
:100F8C00E1E06DE007C0B99AB89A03D0B898F9DFE0
:100F9C00B9986BE16A95F1F7089578E0B898F1DFAC
:100FAC00B09BFECFEEDF8894B1990894B89AF1DF2C
:100FBC00EE1F7A9599F77A2F772311F4B99801C01F
:100FCC00B99ADFDFB898E5DFB89ADBDFB998D9CFEB
:100FDC0078E0AA0F10F4B99801C0B99ADADFB89882
:100FEC00D0DFB09BFECFCDDFB89A7A9591F7B99848
:100FFC00C8DFB898CEDFE1E0B199EE27B89AC1CF3F
:10100C00109639F080ED97E00197F1F7A8951197BC
:10101C00C9F70895F195E195F0400895EE230E2E51
:10102C00EA2F19F0E6950A94E9F70895FA9FF02D46
:10103C00EB9FF00DEA9FE02DF10D08952AD0F6DF1D
:10104C000EF4E8DF08950024112490E1AA0FBB1FD1
:10105C00001C111C0E1A1F0A18F40E0E1F1E01C0C4
:10106C00A1609A9599F7FD01D001089512D0EBDF9C
:10107C000EF4D0DF0895E894B7FF04C0A095B095A6
:10108C0011966894F7FDC6DFDEDFFD010EF4C2DFBA
:10109C000895E894F7FF02C0BDDF6894B7FF06C05F
:1010AC00A095B095119600F8039400FA0895119646
:1010BC0002D0FE2F1197E199FECFFF93FFB7F89462
:1010CC00AEBBBFBBE09AEDB3FFBFFF91089507D055
:1010DC001196EF93EF2F03D0EF9111970895E19BA9
:1010EC0002C0A895FCCF9FB7F894AEBBBFBBE09AEB
:1010FC008DB3E81719F0EDBBE29AE19A9FBF089502
:00000001FF
