:100000000C942F000C9400000C9400000C94000041
:100010000C9400000C9400000C9400000C94000060
:100020000C9400000C9400000C9400000C94000050
:100030000C9400000C9400000C9400000C94000040
:100040000C9400000C9400000C9400000C94000030
:100050000C94000080C00200800154000000F8945D
:10006000EE27ECBBF1E0FBBFEBBFE5BFF8E1F1BD74
:10007000E1BD8DE0A2E0BB27ED938A95E9F780E032
:1000800094E0A0E6ED930197E9F7E6E5F0E08591CD
:100090009591009761F0A591B59105901590BF01DC
:1000A000F00105900D920197E1F7FB01F0CFEFE52C
:1000B000EDBFE4E0EEBFC0E6D1E00C949201AA935C
:1000C000E881E064E7B983E08A95F1F7369A349BDA
:1000D000FECF349AE4B1F5B10C946803442455245E
:1000E000E0E1F0E04E165F060CF043C0F2010E9422
:1000F0006A0311F4C49801C0C49AD201E2E0F0E0AE
:100100000E94700311F4C59801C0C59AD201E4E0C1
:10011000F0E00E94700311F4C69801C0C69AD201A3
:10012000E8E0F0E00E94700311F4C79801C0C79A9C
:10013000F2010E947303EA0FFB1FFF93EF93A0E00D
:10014000BEDFAF91BF91ED93FC93F2010E94730368
:10015000AE0FBF1F0D901C90F3010E9473030E940D
:1001600078030E161F060CF43201F20131962F01AE
:10017000B7CFE0E0EA93A0E00E94EF02D3010E9433
:100180007D03D3010E948A03AAE30E941203F301B4
:100190000E9473030E947803DF01E8EEF3E00E94FF
:1001A0002D04DF010E948A03F3010E9473030E9461
:1001B0007803DF01E4E6F0E00E942D04DF010E94F5
:1001C0008A03F3010E9473030E947803DF010E94F7
:1001D0007D03F3010E9473030E947803DF010E94F4
:1001E0008A030895BA93AA93AE81BF81A030E1E05B
:1001F000BE0724F0EFEFF0E0EE83FF83AE81BF8116
:10020000A130EFEFBE0724F4E1E0FFEFEE83FF83C0
:10021000AC81BD81A030E1E0BE0724F0EFEFF0E05B
:10022000EC83FD83AC81BD81A130EFEFBE0724F4E8
:10023000E1E0FFEFEC83FD83AA81BB81A030E1E028
:10024000BE0724F0EFEFF0E0EA83FB83AA81BB81D5
:10025000A130EFEFBE0724F4E1E0FFEFEA83FB8378
:10026000A881B981A030E1E0BE0724F0EFEFF0E013
:10027000E883F983A881B981A130EFEFBE0724F4A8
:10028000E1E0FFEFE883F983A881B9810E945C0473
:100290001CF49098E88108C0A881B9810E945C0490
:1002A00024F0909AE881E150ECBFAA81BB810E94C2
:1002B0005C0424F49198EA81FB810AC0AA81BB8185
:1002C0000E945C043CF0919AEA81FB81E150FF4F6F
:1002D000F9BDE8BDAC81BD810E945C0424F4929814
:1002E000EC81FD810AC0AC81BD810E945C043CF0C0
:1002F000929AEC81FD81E150FF4FFBBDEABDAE81DA
:10030000BF810E945C041CF49398EE8108C0AE810A
:10031000BF810E945C0424F0939AEE81E150E3BD1A
:1003200028960895E0E0EBBBEABBE8BBECEFE7BB47
:10033000E0E0E5BBE8E0E4BBE0E0E2BBEFEFE1BB1F
:10034000EBE6E3BFE0E0E2BFECBFE1EAEFBDEBE0EC
:10035000EEBDE0E0EDBDECBDE7BDE6BDEBBDEABD49
:10036000E9BDE8BDE2BDECE6E5BDE0E0E4BDE3BD2E
:10037000E5BFE4BFE9BFE0E8E8B9E0E0E0BFE0E402
:10038000E7B9E4E8E6B90E94C503A0E10E943D0395
:10039000A5DEF3010E9473030E947803EC3BA2E008
:1003A000FA070CF0D1C0062C072839F40E949203FA
:1003B0000E949203E1E0FFEFC1C0E1E0F0E0E6154A
:1003C000F70539F40E9492030E949703A0E8BFEF5B
:1003D000B9C0E2E0F0E0E615F70539F40E949203B7
:1003E0000E94A003A0E0B0E0ADC0E3E0F0E0E615BD
:1003F000F70549F40E9492030E94A9030E94AE03EC
:10040000A0E8B0E09FC0E4E0F0E0E615F70549F4AD
:100410000E9492030E94AE030E94AE03AFEFB0E0D1
:1004200091C0E5E0F0E0E615F70539F40E94970386
:100430000E94A903AFEFB0E085C0E6E0F0E0E6156A
:10044000F70539F40E94A0030E94B303AFEFB0E0B8
:1004500079C0E7E0F0E0E615F70549F40E94A9034A
:100460000E94AE030E94B803AFEFB0E06BC0E8E0BB
:10047000F0E0E615F70549F40E94AE030E94AE03D2
:100480000E949203AFEFB0E05DC0E9E0F0E0E61556
:10049000F70549F40E94AE030E94A9030E9492034B
:1004A000A0E8B0E04FC0EAE0F0E0E615F70549F457
:1004B0000E94AE030E94B3030E949203A0E0B0E04A
:1004C00041C0EBE0F0E0E615F70549F40E94AE0309
:1004D0000E94B8030E949203A0E8BFEF33C0ECE093
:1004E000F0E0E615F70539F40E94AE030E9492038E
:1004F000EFEFF0E023C0EDE0F0E0E615F70539F4AA
:100500000E94A9030E949203E0E8F0E017C0EEE029
:10051000F0E0E615F70539F40E94B3030E94920358
:10052000E0E0F0E00BC0EFE0F0E0E615F70559F48D
:100530000E94B8030E949203E0E8FFEFFA93EA9367
:10054000A1E0BFEF4FDE09C00E94B3030E94B303D6
:100550000E94B303A0E0B0E045DE1ACFFFCFFFE07A
:10056000FA95F1F70895A4B3AF70A4BBA99AA8981F
:10057000F6DFAA9AF4DFA3B3AA98F1DFAA9AEFDF15
:10058000AA98A7FDF5CF0895A07FAB2BA5BBAA9A8B
:100590000E94AF02AA980E94AF020895AA93A99858
:1005A000A4B3A76FA4BBB5B3BF70A881EDDFA881CA
:1005B000A295EADFA99A0C946803AA9A0E94AF0256
:1005C000E3B3AA980E94AF02E07F08950E94AF02B1
:1005D000F4DFAE2FF2DFA998E295EA2B0895AA93F3
:1005E0000E94B302E881F0E0E058FE4FE081A9816B
:1005F000AE0F0E94CE0299808880229608950E94B4
:10060000B302A2E00E94CE020E94B302ACE00E94BC
:10061000CE020E94B302A1E00E94CE02E0E08E2E44
:100620009E2E0895AA93EF93FF93A8816894AA3011
:1006300019F0E8949B1430F08394E0E0EA93A82D3D
:10064000CEDF36F093948FDFA89AA8810E94CE0265
:10065000FF91EF910C946803AA27BB271197F1F73C
:100660000895AA93A998A4B3A76FA4BBB5B3BF700C
:10067000A8810E94C402A99A2BC0AA93AA98A898FC
:10068000B880E881E058E0938201E881E054E0938B
:10069000830173D072D071D0DFDFA0E2E2DFDCDF54
:1006A000A8E26FD0A4E06DD0A5E86BD0A4B3AF7082
:1006B000A4BBA99A0E94E602E53011F0E0E008C070
:1006C0000E94B302A6E00E94CE020E94FF02E1E077
:1006D00021960895A1E0B0E00E944004E030089522
:1006E0000E942D04F7CFA0E6B1E0EE0FFF1F0895A2
:1006F000AE0FBF1F0E9458040895EAE0F0E00E9488
:100700002D04DF01EAE0F0E00E943204E05DAE2F4C
:100710000C941203EAE0F0E00E943204E05DAE2F98
:100720000C941203EFEFF0E0FA93EA930895E0E8F7
:10073000F0E0FA93EA93E1E0FFEFFA93EA93089589
:10074000E0E0F0E0FA93EA93E1E0FFEFFA93EA9356
:100750000895E0E8FFEFFA93EA930895E1E0FFEFF0
:10076000FA93EA930895E0E0F0E0FA93EA930895AB
:10077000E0E8F0E0FA93EA9308950E942C03A0E3E6
:1007800070CF0E94CE020C942C03C198C098B99AE5
:10079000B89815C0B898B998EE270000B09B089596
:1007A000B19B089504D0B89A02D0B99AE1E062E012
:1007B00007C0B89AB99A03D0B998F9DFB89863E03E
:1007C0006A95F1F7089578E0B998F1DFB19BFECF13
:1007D000EEDF8894B0990894B99AF1DFEE1F7A950C
:1007E00099F77A2F772311F4B89801C0B89ADFDF10
:1007F000B998E5DFB99ADBDFB898D9CF78E0AA0FCE
:1008000010F4B89801C0B89ADADFB998D0DFB19B7C
:10081000FECFCDDFB99A7A9591F7B898C8DFB9982D
:10082000CEDFE1E0B099EE27B99AC1CFF195E1951D
:10083000F04008950024112490E1AA0FBB1F001C72
:10084000111C0E1A1F0A18F40E0E1F1E01C0A16003
:100850009A9599F7FD01D00108951CD0EBDF0EF4B5
:10086000E5DF0895E894B7FF04C0A095B095119610
:100870006894F7FDDBDFDEDFFD010EF4D7DF0895BE
:10088000E894F7FF02C0D2DF6894EA23FB230EF45A
:10089000CDDF0895E894F7FF02C0C8DF6894B7FF82
:1008A00006C0A095B095119600F8039400FA08953B
:1008B000ED91FC911197089500240A160B060895F6
:00000001FF
