:0C0000000C9440000C9400000C940000D4
:10000C000C9400000C9400000C9400000C94000064
:10001C000C9400000C9400000C9400000C94000054
:10002C000C9400000C9400000C9400000C94000044
:10003C000C9400000C9400000C9400000C94000034
:10004C000C9400000C9400001027E80364000A00D4
:10005C00010000100001100001000000FF0080C032
:10006C0002000400660001006A01680002007101D0
:10007C006A000000F894EE27ECBBF1E0FBBFEBBF8D
:10008C00E5BF8DE0A2E0BB27ED938A95E9F780E010
:10009C0094E0A0E6ED930197E9F7ECE6F0E08591AA
:1000AC009591009761F0A591B59105901590BF01C0
:1000BC00F00105900D920197E1F7FB01F0CFEFE510
:1000CC00EDBFE4E0EEBFC0E6D1E00C94FD01AA93D5
:1000DC00E881E064E7B98BE18A95F1F7369A349BB5
:1000EC00FECF349AE4B1F5B10C943803AA931A9369
:1000FC000E94CF03A0EC0E940304A9810E94030478
:10010C000E94CF03A1EC0E940304A0E00E94E8032C
:10011C001E2F0E94DE03E12F18810C94DC020E943A
:10012C003E03A0916F01B0917001EA1BFB0B0E9482
:10013C004303A0916E01AA2322F40E9448030E945B
:10014C0043030E944D03A138E0E0BE0734F00E9447
:10015C004803EF5FF0400E9443030E944D03A03818
:10016C00EFEFBE0734F40E944803E150FF4F0E94AA
:10017C004303A0916E01AA237AF0E0E00E9452039F
:10018C00ABE20E9456030E9459030E9456030E9440
:10019C0065030E94560312C0A0916E01AA2392F42B
:1001AC00E0E00E945203ADE20E9471030E945903E9
:1001BC000E9471030E9465030E947103EAE0F0E063
:1001CC000E9478030E944803AEEFBFEF0E943104F7
:1001DC000E944303A7E07BDFE0936001F093610191
:1001EC00E5E00E9452030E947E030E9459030E9484
:1001FC00EC020E947E030E9465030E94EC020E94A6
:10020C007E030E948303A6E062DFE0936401F09317
:10021C006501E9E00E9452030E9486030E94590383
:10022C000E94EC020E9486030E9465030E94EC026D
:10023C000E9486030E948303A5E049DFE0936201DC
:10024C00F0936301EDE00E9452030E948B030E9425
:10025C0059030E94EC020E948B030E9465030E94CA
:10026C00EC020E948B030E9483030E948B03E0919B
:10027C006401F0916501EA1BFB0BE0936601F093BE
:10028C006701A0916601B0916701DC974CF4A091D5
:10029C006601B0916701E4ECFFEFEA17FB070CF085
:1002AC0005C0E0E0E0936601E09367010895BA931E
:1002BC00AA93A881B981A030E1E0BE0724F0EFEF4A
:1002CC00F0E0E883F983A881B981A130EFEFBE0794
:1002DC0024F4E1E0FFEFE883F983AA81BB81A0302D
:1002EC00E1E0BE0724F0EFEFF0E0EA83FB83AA81A4
:1002FC00BB81A130EFEFBE0724F4E1E0FFEFEA830E
:10030C00FB83AC81BD81A030E1E0BE0724F0EFEFB0
:10031C00F0E0EC83FD83AC81BD81A130EFEFBE0733
:10032C0024F4E1E0FFEFEC83FD83AE81BF81A030CC
:10033C00E1E0BE0724F0EFEFF0E0EE83FF83AE8147
:10034C00BF81A130EFEFBE0724F4E1E0FFEFEE83B5
:10035C00FF83A881B9810E946A041CF49698E881F5
:10036C0008C0A881B9810E946A0424F0969AE88199
:10037C00E150ECBFAA81BB810E946A0424F49198DD
:10038C00EA81FB810AC0AA81BB810E946A043CF00D
:10039C00919AEA81FB81E150FF4FF9BDE8BDAC8138
:1003AC00BD810E946A0424F49298EC81FD810AC0FC
:1003BC00AC81BD810E946A043CF0929AEC81FD8173
:1003CC00E150FF4FFBBDEABDAE81BF810E946A04C4
:1003DC001CF49398EE8108C0AE81BF810E946A0420
:1003EC0024F0939AEE81E150E3BD28960895E0E065
:1003FC00EABBEBBBEFEFE7BBE0E0E8BBE8E0E4BB5C
:10040C00E0E0E5BBEFEFE1BBE0E0E2BBEBE6E3BF36
:10041C00E0E0E2BFECBFE1EAEFBDEBE0EEBDE0E017
:10042C00EDBDECBDE7BDE6BDEBBDEABDE9BDE8BD8C
:10043C00E2BDECE6E5BDE0E0E4BDE3BDE9BFE5BF50
:10044C00E4BFEBB9E0E1EAB9E6E8E0BDE0E0E0BD2D
:10045C00E3E3E9B9E0E8E8B9E0E4E7B9E6E8E6B9EE
:10046C00E0E0E0BFEDB9E6BF0E94CA03A0E1CDD049
:10047C000E943E03E0936F01F0937001A8EBBBE088
:10048C000E941B040E943E03E0936F01F0937001E5
:10049C00E0E0E0936801E0936901E0936D01E09383
:1004AC006E010E943A03E0936C0139DEA0916C015D
:1004BC00A73759F40E9490030E949A03EA0FFB1F7E
:1004CC000E949A03AE0FBF1F3FC0A0916C01A337CF
:1004DC0059F40E94A3030E94AA03FA93EA930E9480
:1004EC0090030E94B00330C0A0916C01A13679F446
:1004FC000E94A3030F010E94AA030E9490030E9472
:10050C009003F0010E944D03AE0FBF1F1DC0A091C0
:10051C006C01A43689F40E9490030E94A3030E94EC
:10052C004D03EA0FFB1F0E949A03EA0FFB1FFA937D
:10053C00EA930E94B00308C00E94B8030E94B8035B
:10054C000E94B8030E944D03B2DEABCFFFCFAA933B
:10055C00E5B3EF70AE2FE881E07FEA2BE5BB8DE0D1
:10056C008A95F1F7AA9A8DE08A95F1F7AA988DE011
:10057C008A95F1F777C0AA93A881E9DFE881E29523
:10058C00E883A881E4DF85E88A95F1F76BC0AA932C
:10059C00E881F0E0EF58FE4FE081A981AE0FEBDF70
:1005AC00E981E0937501E881E09376012296089544
:1005BC00A2E00E94BC03ACE0DEDFA1E00E94BC0321
:1005CC00E0E0E0937601E09375010895AA93A88189
:1005DC00AA3031F0E0917701A0917501AE1758F077
:1005EC00E0E0EA93A0917601AF5FA0937601CFDFB4
:1005FC00A881AA30B9F1E0917501EF5FE093750124
:10060C00A89AA881B8DFA8982DC0AA93E4B3E06F8C
:10061C00E4BBA29AA09AA19AAA98A898A998E88152
:10062C00E0937701E058E0937301E881E054E093A4
:10063C007401A4E1B0E00E941B040E94C2030E945A
:10064C00C2030E94C203A0E282DF88EC90E0019713
:10065C00F1F7A8E290DFA4E08EDFA5E88CDFA6E03E
:10066C008ADFA6DF219608955F9BFECFECB108953B
:10067C00A1E00E947C00F0E00895E0936D01F093FE
:10068C006E010895E0916D01F0916E010895A091B5
:10069C006D01B0916E010895EA93A1E00C94CD0226
:1006AC000E94EC02F4CFE4E6F0E00E944904DF0182
:1006BC00EAE0F0E00E944E04E05DAE2F0895EAE01F
:1006CC00F0E00E944904DF01EAE0F0E00E944E04F1
:1006DC00E05DAE2F08950E94EC02D4DF0E94250449
:1006EC00DF0108950E944E04E05DAE2F0C94EC02E5
:1006FC00A0916001B09161010895EAE0F0E0F2CFC1
:10070C00A0916401B09165010895A0916201B0912E
:10071C0063010895B7DFA0916A01B0916B01EA0FF4
:10072C00FB1FFA93EA930895FA93EA93E0916A0116
:10073C00F0916B010E942504AACFE0916A01F0911F
:10074C006B010E9425040895A2DFEA0FFB1FFA93A8
:10075C00EA93089597DFA0916A01B0916B01AE0FF7
:10076C00BF1F08958FDFFA93EA9308950E94C10288
:10077C00A3E0B0E00C941B04A0E30E94AD0288EC53
:10078C0090E00197F1F70895C098C198B89AB9987C
:10079C0015C0B998B898EE270000B19B0895B09B8E
:1007AC00089504D0B99A02D0B89AE1E06DE007C080
:1007BC00B99AB89A03D0B898F9DFB9986BE16A95F1
:1007CC00F1F7089578E0B898F1DFB09BFECFEEDF3B
:1007DC008894B1990894B89AF1DFEE1F7A9599F73D
:1007EC007A2F772311F4B99801C0B99ADFDFB89842
:1007FC00E5DFB89ADBDFB998D9CF78E0AA0F10F40F
:10080C00B99801C0B99ADADFB898D0DFB09BFECFA7
:10081C00CDDFB89A7A9591F7B998C8DFB898CEDF42
:10082C00E1E0B199EE27B89AC1CF109639F080ED7E
:10083C0097E00197F1F7A8951197C9F70895F195ED
:10084C00E195F0400895FA9FF02DEB9FF00DEA9F93
:10085C00E02DF10D08952AD0F6DF0EF4F0DF0895A7
:10086C000024112490E1AA0FBB1F001C111C0E1AAE
:10087C001F0A18F40E0E1F1E01C0A1609A9599F75D
:10088C00FD01D001089512D0EBDF0EF4D8DF0895EE
:10089C00E894B7FF04C0A095B09511966894F7FD45
:1008AC00CEDFDEDFFD010EF4CADF0895E894F7FF1A
:1008BC0002C0C5DF6894B7FF06C0A095B09511962D
:1008CC0000F8039400FA089500240A160B06089504
:00000001FF
