:040000000C94330029
:100004000C9400000C9400000C9400000C9400006C
:100014000C9400000C9400000C9400000C9400005C
:100024000C9400000C9400000C9400000C9400004C
:100034000C9400000C9400000C9400000C9400003C
:100044000C9400000C9400000C9400000C9400002C
:10005400FF0080C001006001540002006A015600E4
:100064000000F894EE27ECBBF1E0FBBFEBBFE5BF6B
:100074008DE0A2E0BB27ED938A95E9F780E094E058
:10008400A0E6ED930197E9F7E8E5F0E08591959115
:10009400009761F0A591B59105901590BF01F0010D
:1000A40005900D920197E1F7FB01F0CFEFE5EDBF6D
:1000B400E4E0EEBFC0E6D1E00C943002AA93E881FC
:1000C400E064E7B98BE18A95F1F7369A349BFECF69
:1000D400349AE4B1F5B10C947C04AA931A930E9467
:1000E4007E040E941D050E947E04A0EC0E948304ED
:1000F400A9810E9483040E941D050E947E04A1EC34
:100104000E948304A0E00E9436051E2F0E947E04F4
:100114000E942C050E947E04E12F18810C94010496
:10012400BA93AA93F201AE81BF81EA0FFB1FEE835B
:10013400FF83F201AC81BD81EA0FFB1FEC83FD83D9
:10014400F201AA81BB81EA0FFB1FEA83FB83F20160
:10015400A881B981EA0FFB1FE883F983AE81BF81CF
:10016400A030E1E0BE0724F0EFEFF0E0EE83FF8380
:10017400AC81BD81A030E1E0BE0724F0EFEFF0E0F8
:10018400EC83FD83AA81BB81A030E1E0BE0724F0AB
:10019400EFEFF0E0EA83FB83A881B981A030E1E0CE
:1001A400BE0724F0EFEFF0E0E883F983AE81BF816E
:1001B400A130EFEFBE0724F4E1E0FFEFEE83FF830D
:1001C400AC81BD81A130EFEFBE0724F4E1E0FFEF85
:1001D400EC83FD83AA81BB81A130EFEFBE0724F439
:1001E400E1E0FFEFEA83FB83A881B981A130EFEF5F
:1001F400BE0724F4E1E0FFEFE883F983A981AA2391
:100204001AF09098E88103C0909AE881E150ECBF1D
:10021400AB81AA2322F09198EA81FB8105C0919ACF
:10022400EA81FB81E150FF4FF9BDE8BDAD81AA230E
:1002340022F09298EC81FD8105C0929AEC81FD81B7
:10024400E150FF4FFBBDEABDAF81AA231AF093989A
:10025400EE8103C0939AEE81E150E3BD28960895A0
:10026400EFEFF3E0E0936601F0936701E0E0E093E1
:100274006401E09365010E94860450970CF04BC022
:100284000E948604E8E0F0E00E948B0411F4C79811
:1002940001C0C79A0E948604E4E0F0E00E948B0447
:1002A40011F4C69801C0C69A0E948604E2E0F0E008
:1002B4000E948B0411F4C59801C0C59AE0916401B1
:1002C400F0916501A1E0B0E00E94AA05E03011F4CC
:1002D400C49801C0C49AA0E0F1DEDF01E091660198
:1002E400F0916701AE17BF0770F4A0E0E7DEE0937A
:1002F4006601F0936701E0916401F0916501E09378
:100304006201F0936301A4E6B1E0ED91FD913196B1
:10031400FE93EE93B0CFE0E0EA93A0E00E94EF03F7
:100324000E9493040E949A040E9493040E94A504CC
:10033400AAE30E9418040E94AB04E8EEF3E00E94D2
:100344009A040E94AB040E94B0040E94AB040E9471
:10035400B3040E94AB040E94B604A1E0AFDE5F01C7
:10036400A2E0ACDE4F01A3E0A9DE6F01E0E00E9451
:10037400B904ACE40E941804D6010E94B004D6016A
:100384000E94B304D6010E94B604E5E00E94B904B9
:10039400A2E40E941804D5010E94B004D5010E9471
:1003A400B304D5010E94B604EAE00E94B904A2E5B0
:1003B4000E941804D4010E94B004D4010E94B30422
:1003C400D4010E94B604F601E819F909E093680122
:1003D400F0936901A1E081DEF0E0E619F7092F014D
:1003E400E0E8F0E0E415F50524F4EFEFF0E04E1A50
:1003F4005F0AE0E8FFEF4E165F0624F4F201E150D5
:10040400FF4F2F01E8E0EA93A0E00E94EF030024ED
:10041400401450045CF0ABE20E941804D2010E9424
:10042400B004D2010E94B304D2010DC0ADE20E9417
:1004340018040E94BD040E94B0040E94BD040E94DE
:10044400B3040E94BD04EAE0F0E00E94A504F201B6
:10045400AEEFBFEF0E947F052F010895E0E0EABBF5
:10046400EBBBE8EFE7BBE0E0E8BBE4BBE5BBEFEFE9
:10047400E1BBE0E0E2BBEBE6E3BFE0E0E2BFECBF00
:10048400E1EAEFBDEBE0EEBDE0E0EDBDECBDE7BDC4
:10049400E6BDEBBDEABDE9BDE8BDE2BDECE6E5BD08
:1004A400E0E0E4BDE3BDE9BFE5BFE4BFEAB9E0E8ED
:1004B400E8B9E0E4E7B9E7E8E6B9E0E0E0BFEDB9C0
:1004C400E6BF0E941805A0E10E945004A1E005DEE9
:1004D4006E2E7724A8EBBBE00E946905C1DE0E9462
:1004E400AB04AD3BE2E0BE070CF0E1C0E091620179
:1004F400F0916301309739F40E94C2040E94C2044F
:100504000E94C904CDC00E94D004119769F40E94CE
:10051400C2040E94C9040E94D5040E94C9040E9416
:10052400DD040E94E404C0C00E94D004129749F480
:100534000E94C2040E94C9040E94E9040E94DD04CE
:10054400B4C00E94D004139769F40E94EC040E9482
:10055400E404DF010E94E904FA93EA93FD010E9496
:10056400DD04A3C00E94D004149729F40E94F1046E
:100574000E94F4049AC00E94D004159759F40E9472
:10058400C9040E94D5040E94DD040E94E4040E9470
:10059400DD048BC00E94D004169739F40E94C9046C
:1005A4000E94F9040E94EC0480C00E94D0041797B2
:1005B40059F40E94C904FA93EA930E94D5040E9454
:1005C400C2040E94FE0470C00E94D004189729F44B
:1005D4000E94F1040E94F40468C00E94D004199798
:1005E40059F40E94C9040E94D5040E94DD040E94AB
:1005F400E4040E94DD0459C00E94D0041A9739F41F
:100604000E94C9040E94F9040E94EC044EC00E9496
:10061400D0041B9759F40E94C904FA93EA930E94E8
:10062400D5040E94C2040E94FE043EC00E94D0046D
:100634001C9759F40E94C904FA93EA93E0E0F0E0AD
:100644000E940005A0E0B0E030C00E94D0041D97D5
:1006540071F40E94C9040E94DD040E94E4040E9413
:1006640000050E94C904DF010E94E4041DC00E9429
:10067400D0041E9749F40E94C9040E940005E09129
:100684006001F09161010CC00E94D0041F9771F4C5
:100694000E94C9040E94D5040E94C2040E94FE0460
:1006A400FA93EA930E94C904DF013ADD3BC00E9439
:1006B4000305EE0FFF1FE0936801F0936901E8EC76
:1006C400F0E0AE16BF06FCF40E94C9040F010E94BC
:1006D4000805EA0FFB1FFA93EA93D0010E94030571
:1006E400AE1BBF0BBA93AA930E940805E091600168
:1006F400F0916101EA1BFB0B0E940D050E94EC04C2
:10070400AE0FBF1F0EC00E9403050E940D050E947C
:1007140073050E940D050E947305FA93EA930E94E3
:100724000805FEDCECE2F1E0CE16DF062CF00E94B8
:10073400F1040E94F404F4DCECE2F1E08E169F066E
:1007440054F00E94C9040E9400050E94C2040E9441
:10075400C904DF01E5DCC2CEFFCFFFE0FA95F1F773
:100764000895A4B3AF70A4BBA99AA898F6DFAA9A77
:10077400F4DFA3B3AA98F1DFAA9AEFDFAA98A7FD42
:10078400F5CF0895A07FAB2BA5BBAA9A0E94AF0317
:10079400AA980E94AF030895AA93A998A4B3A76F37
:1007A400A4BBB5B3BF70A881EDDFA881A295EADF31
:1007B400A99A0C947C04AA9A0E94AF03E3B3AA9862
:1007C4000E94AF03E07F08950E94AF03F4DFAE2FD1
:1007D400F2DFA998E295EA2B0895AA930E94B30345
:1007E400E881F0E0E659FE4FE081A981AE0F0E9456
:1007F400CE03E981E0936E01E881E0936F012296D4
:1008040008950E94B303A2E00E94CE030E94B303A2
:10081400ACE00E94CE030E94B303A1E00E94CE0389
:10082400E0E0E0936F01E0936E010895AA93EF93E3
:10083400FF93A8816894AA3039F0E894E09170019C
:10084400A0916E01AE1758F0E0916F01EF5FE09355
:100854006F01E0E0EA93A0916F01BFDF56F0E091F1
:100864006E01EF5FE0936E017CDFA89AA8810E947D
:10087400CE03FF91EF910C947C04AA27BB27119718
:10088400F1F70895AA93A998A4B3A76FA4BBB5B32D
:10089400BF70A8810E94C403A99A2CC0AA93AA98E5
:1008A400A898E881E0937001E058E0936C01E88136
:1008B400E054E0936D01B2D0B1D0B0D0DEDFA0E25D
:1008C400E1DFDBDFA8E2AED0A4E0ACD0A5E8AAD09B
:1008D400A4B3AF70A4BBA99A0E94E603E53011F05B
:1008E400E0E008C00E94B303A6E00E94CE030E9489
:1008F4000304E1E02196089588EC90E00197F1F774
:1009040008950E945105F8CFA0916401B09165014A
:1009140008950E949705A1E0B0E00E94AA05E03086
:100924000895A0916201B0916301EAE0F0E00895B6
:100934000E949705DF01EAE0F0E00E949C05E05D7B
:10094400AE2F0C9418040E949C05E05DAE2F0C940D
:100954001804A0916601B09167010895E4E6F0E0FF
:10096400E7CFEAE0F0E0E4CFEAE0F0E0ECCFEA93AE
:10097400A1E00C94EF03F2010E947305DF010895D6
:10098400E0916001F0916101FA93EA930895E09196
:100994006001F09161010E9473050895A0916201C4
:1009A400B09163010895DF01E2E0F0E00E94970551
:1009B400FA93EA930895FA93EA93A0916001B091AF
:1009C40061010895E2E0F0E00E9497050895FA932A
:1009D400EA93DDCFA0916001B09161010895E0E058
:1009E400F0E0F5CFFA93EA93E0E0F0E0E4CFFA9395
:1009F400EA93FA93EA93C4CFEDDFE4CFFA93EA9350
:100A0400BFCFE0916801F09169010895A091680158
:100A1400B09169010895FA93EA93F3CF0E943F04D9
:100A2400A0E330CF0E94CE030C943F04C098C19839
:100A3400B89AB99815C0B998B898EE270000B19B38
:100A44000895B09B089504D0B99A02D0B89AE1E011
:100A54006DE007C0B99AB89A03D0B898F9DFB9988D
:100A64006BE16A95F1F7089578E0B898F1DFB09BEF
:100A7400FECFEEDF8894B1990894B89AF1DFEE1FA7
:100A84007A9599F77A2F772311F4B99801C0B99A16
:100A9400DFDFB898E5DFB89ADBDFB998D9CF78E023
:100AA400AA0F10F4B99801C0B99ADADFB898D0DF68
:100AB400B09BFECFCDDFB89A7A9591F7B998C8DF8D
:100AC400B898CEDFE1E0B199EE27B89AC1CF10967D
:100AD40039F080ED97E00197F1F7A8951197C9F7E0
:100AE4000895F195E195F0400895FA9FF02DEB9F5C
:100AF400F00DEA9FE02DF10D089534D0F6DF0EF4E9
:100B0400F0DF08950024112490E1AA0FBB1F001CFC
:100B1400111C0E1A1F0A18F40E0E1F1E01C0A1602C
:100B24009A9599F7FD01D00108951CD0EBDF0EF4DE
:100B3400D8DF0895E894B7FF04C0A095B095119646
:100B44006894F7FDCEDFDEDFFD010EF4CADF089501
:100B5400E894F7FF02C0C5DF6894EA23FB230EF490
:100B6400C0DF0895E894F7FF02C0BBDF6894B7FFC5
:100B740006C0A095B095119600F8039400FA089564
:00000001FF
