:100000000C9431000C9400000C9400000C9400003F
:100010000C9400000C9400000C9400000C94000060
:100020000C9400000C9400000C9400000C94000050
:100030000C9400000C9400000C9400000C94000040
:100040000C9400000C9400000C9400000C94000030
:100050000C940000203A200080C00200600158008B
:100060000000F894EE27ECBBF1E0FBBFEBBFE5BF6F
:100070008DE0A2E0BB27ED938A95E9F780E094E05C
:10008000A0E6ED930197E9F7EAE5F0E08591959117
:10009000009761F0A591B59105901590BF01F00111
:1000A00005900D920197E1F7FB01F0CFEFE5EDBF71
:1000B000E4E0EEBFC0E6D1E00C948102AA93E881AF
:1000C000E064E7B983E08A95F1F7369A349BFECF76
:1000D000349AE4B1F5B10C949B03EFEFF3E03F01E8
:1000E00044245524E0E1F0E04E165F0694F5D20179
:1000F000E8E0F0E00E949D0311F4C79801C0C79AA0
:10010000D201E4E0F0E00E949D0311F4C69801C022
:10011000C69AD201E2E0F0E00E949D0311F4C59876
:1001200001C0C59AF201A1E0B0E00E942C04E030C9
:1001300011F4C49801C0C49AA0E0C0DFE615F70529
:1001400020F44201A0E0BADF3F01F20131962F0115
:10015000C9CFE0E0EA93A0E00E94FB02D4010E9434
:10016000A503D4010E94B203A4E5B0E00E944B03B2
:10017000D301E8EEF3E00E94BA03D301E4E6F0E035
:100180000E94BA03D3010E94A503D3010E94B203C7
:10019000A7E094DF5F01E0E0EA93A1E00E94FB02A8
:1001A000D501E4E6F0E00E94BA03D5010E94A50360
:1001B000D5010E94B2030895BA93AA93AE81BF817C
:1001C000A130EFEFBE0724F4E1E0FFEFEE83FF8301
:1001D000AC81BD81A130EFEFBE0724F4E1E0FFEF79
:1001E000EC83FD83AA81BB81A130EFEFBE0724F42D
:1001F000E1E0FFEFEA83FB83A881B981A130EFEF53
:10020000BE0724F4E1E0FFEFE883F983AE81BF810C
:10021000A030E1E0BE0724F0EFEFF0E0EE83FF83D3
:10022000AC81BD81A030E1E0BE0724F0EFEFF0E04B
:10023000EC83FD83AA81BB81A030E1E0BE0724F0FE
:10024000EFEFF0E0EA83FB83A881B981A030E1E021
:10025000BE0724F0EFEFF0E0E883F983A881B981CD
:100260000E9444041CF49098E88108C0A881B981D8
:100270000E94440424F0909AE881E150ECBFAA81E6
:10028000BB810E94440424F49198EA81FB810AC056
:10029000AA81BB810E9444043CF0919AEA81FB81CF
:1002A000E150FF4FF9BDE8BDAC81BD810E9444041F
:1002B00024F49298EC81FD810AC0AC81BD810E943A
:1002C00044043CF0929AEC81FD81E150FF4FFBBD6C
:1002D000EABDAE81BF810E9444041CF49398EE8174
:1002E00008C0AE81BF810E94440424F0939AEE813D
:1002F000E150E3BD28960895E0E2F3E06E167F0634
:100300000CF0E2C0082C092841F4DA92CA920E944B
:10031000BE030E94C403DF01D5C0E1E0F0E0E815B0
:10032000F90551F40E94BE030E94CA030E94C4034F
:100330000E94D003DF01C6C0E2E0F0E0E815F90555
:1003400041F40E94BE030E94C403FA93EA93D601CB
:10035000B9C0E3E0F0E0E815F90561F40E94D803C4
:100360000E94C4030E94C4030E94CA03FA93EA9342
:10037000D601A8C0E4E0F0E0E815F90541F4E0E0BA
:10038000F0E00E94C4030E94DE03D6019BC0E5E0BA
:10039000F0E0E815F90541F40E94E5030E94EA0344
:1003A000FA93EA93D6018EC0E6E0F0E0E815F9058D
:1003B00031F40E94EF030E94F503D60183C0E7E009
:1003C000F0E0E815F90551F40E94EF030E94CA031A
:1003D0000E94F5030E94D803DF0174C0E8E0F0E05A
:1003E000E815F90551F4F6010E9402040E94DE03AB
:1003F000DA92CA92A0E0B0E065C0E9E0F0E0E8156A
:10040000F90541F40E94E5030E94EA03FA93EA9396
:10041000D60158C0EAE0F0E0E815F90531F40E9491
:10042000EF030E94F503D6014DC0EBE0F0E0E815C4
:10043000F90551F40E94EF030E94CA030E94F503DC
:100440000E94D803DF013EC0ECE0F0E0E815F905BA
:1004500051F4F6010E9402040E94DE03DA92CA926D
:10046000A0E0B0E02FC0EDE0F0E0E815F90579F488
:10047000F6010E940204BF010E94D0030E94F5030E
:10048000DB01E2E0F0E00E941904DF011BC0EEE0B6
:10049000F0E0E815F90541F40E94EF03DA92CA9200
:1004A000DA92CA92DF010EC0EFE0F0E0E815F9053C
:1004B00051F40E94E5030E94F5030E94D803FA93C9
:1004C000EA93DB0179DE1CC0E8ECF0E0AE16BF0673
:1004D00064F4E1E0FFEFFA93EA93FA93EA93EFEF23
:1004E000F0E0FA93EA93AFEF09C0E0E0F0E00E9499
:1004F000DE03E0E0F0E0FA93EA93A0E0B0E05CDE37
:100500000895E0E0EABBEBBBE8EFE7BBE0E0E8BB67
:10051000E4BBE5BBEFEFE1BBE0E0E2BBEBE6E3BF52
:10052000E0E0E2BFECBFE1EAEFBDEBE0EEBDE0E012
:10053000EDBDECBDE7BDE6BDEBBDEABDE9BDE8BD87
:10054000E2BDECE6E5BDE0E0E4BDE3BDE9BFE5BF4B
:10055000E4BFEAB9E0E8E8B9E0E4E7B9E4E8E6B91D
:10056000E0E0E0BFEDB9E6BFA0E10E946F03B5DDBA
:10057000C3DEFDCFFFCFFFE0FA95F1F70895A4B3F6
:10058000AF70A4BBA99AA898F6DFAA9AF4DFA3B328
:10059000AA98F1DFAA9AEFDFAA98A7FDF5CF0895F0
:1005A000A07FAB2BA5BBAA9A0E94BB02AA980E946F
:1005B000BB020895AA93A998A4B3A76FA4BBB5B32F
:1005C000BF70A881EDDFA881A295EADFA99A0C94FB
:1005D0009B03AA9A0E94BB02E3B3AA980E94BB02A3
:1005E000E07F08950E94BB02F4DFAE2FF2DFA998EE
:1005F000E295EA2B0895AA930E94BF02E881F0E0F9
:10060000E05AFE4FE081A981AE0F0E94DA02E98133
:10061000E0936401E881E0936501229608950E94C9
:10062000BF02A2E00E94DA020E94BF02ACE00E9478
:10063000DA020E94BF02A1E00E94DA02E0E0E09349
:100640006501E09364010895AA93EF93FF93A88155
:100650006894AA3039F0E894E0916601A0916401B1
:10066000AE1758F0E0916501EF5FE0936501E0E0BF
:10067000EA93A0916501BFDF56F0E0916401EF5F5E
:10068000E09364017CDFA89AA8810E94DA02FF91BE
:10069000EF910C949B03BA93AA931A93E981FA8180
:1006A0003196E983FA833197E4911E2FE03019F0F7
:1006B000A12FCADFF3CF188123960895AA27BB275D
:1006C0001197F1F70895AA93A998A4B3A76FA4BBB3
:1006D000B5B3BF70A8810E94D002A99A2CC0AA937A
:1006E000AA98A898E881E0936601E058E093620137
:1006F000E881E054E09363017DD07CD07BD0DEDFE5
:10070000A0E2E1DFDBDFA8E279D0A4E077D0A5E8C2
:1007100075D0A4B3AF70A4BBA99A0E94F202E530D1
:1007200011F0E0E008C00E94BF02A6E00E94DA02D9
:100730000E940F03E1E0219608950E941904A1E0B0
:10074000B0E00E942C04E0300895EAE0F0E00E945E
:100750001904DF01EAE0F0E00E941E04E05DAE2F24
:100760000C942403EAE0F0E00E941E04E05DAE2F4A
:100770000C9424030E941904DF01F4CFDA92CA9288
:10078000F6010E9402040895FA93EA93F6010E948A
:1007900002040895DF01E2E0F0E00E9419040895E8
:1007A000FA93EA93D601E2E0F0E00E94190408957A
:1007B000D601E2E0F0E00E9419040895FA93EA936A
:1007C000E0E0F0E0FA93EA930895F6010E94020453
:1007D000BF01E0CFFA93EA937A936A93E9CFF601E7
:1007E0000E940204FA93EA930895FA93EA93DA9244
:1007F000CA9208950E945E03A0E365CF0E94DA02C8
:100800000C945E03F195E195F040089500241124C5
:1008100090E1AA0FBB1F001C111C0E1A1F0A18F42E
:100820000E0E1F1E01C0A1609A9599F7FD01D0011F
:1008300008951CD0EBDF0EF4E5DF0895E894B7FFD0
:1008400004C0A095B09511966894F7FDDBDFDEDF5C
:10085000FD010EF4D7DF0895E894F7FF02C0D2DF60
:100860006894EA23FB230EF4CDDF0895E894F7FFA4
:1008700002C0C8DF6894B7FF06C0A095B095119676
:1008800000F8039400FA089500240A160B06089550
:00000001FF
