:0C0000000C9436000C9400000C940000DE
:10000C000C9400000C9400000C9400000C94000064
:10001C000C9400000C9400000C9400000C94000054
:10002C000C9400000C9400000C9400000C94000044
:10003C000C9400000C9400000C9400000C94000034
:10004C000C9400000C94000040344D314E00405490
:10005C0040343044000080C00200600162000000A7
:10006C00F894EE27ECBBF1E0FBBFEBBFE5BF8DE0F6
:10007C00A2E0BB27ED938A95E9F780E094E0A0E637
:10008C00ED930197E9F7E4E6F0E0859195910097FF
:10009C0061F0A591B59105901590BF01F001059007
:1000AC000D920197E1F7FB01F0CFEFE5EDBFE4E036
:1000BC00EEBFC0E6D1E00C946300E0E0EABBEBBB22
:1000CC00ECEFE7BBE0E0E8BBE4BBE5BBEFEFE1BB8B
:1000DC00E0E0E2BBEBE6E3BFE0E0E2BFECBFE1EA6D
:1000EC00EFBDEBE0EEBDE0E0EDBDECBDE7BDE6BD88
:1000FC00EBBDEABDE9BDE8BDE2BDECE6E5BDE0E087
:10010C00E4BDE3BDE9BFE5BFE4BFEAB9E0E8E8B9A7
:10011C00E0E4E7B9E4E8E6B9E0E0E0BFEDB9E6BF5A
:10012C00A0E17FD0E0E0EA93A0E03CD0A4E5B0E011
:10013C0065D0E0E0EA93A1E035D0AAE5B0E05ED06E
:10014C009098E2E3ECBF9198E4E6F0E0F9BDE8BDED
:10015C009298E6E9F0E0FBBDEABD9398E8ECE3BDCC
:10016C00E1CFFFCFAA93E5B3EF70AE2FE881E07F2C
:10017C00EA2BE5BB82E08A95F1F7AA9A82E08A9590
:10018C00F1F7AA9882E08A95F1F773C0AA93A88137
:10019C00E9DFE881E295E883A881E4DF81E18A95D3
:1001AC00F1F767C0AA93E881F0E0E05AFE4FE081D6
:1001BC00A981AE0FEBDF5980488022960895A2E00A
:1001CC005AD0ACE0E3DFA1E056D0E0E04E2E5E2E3C
:1001DC000895AA93A881AA3011F0571448F0E0E0D2
:1001EC00EA934394A42DDEDFA881AA3009F441C020
:1001FC005394A89AA881CADFA8983BC0BA93AA9333
:10020C001A93E981FA813196E983FA833197E49163
:10021C001E2FE03019F0A12FDCDFF3CF18812396CD
:10022C000895AA93E4B3E06FE4BBA29AA09AA19AB2
:10023C00AA98A898A9987880E881E058E093620180
:10024C00E881E054E0936301A4E1B0E00E944C012A
:10025C0017D016D015D0A0E285DF81E28A95F1F790
:10026C00A8E294DFA4E092DFA5E890DFA6E08EDFA1
:10027C00A6DF219608958ADFA3E0B0E00C944C0130
:10028C00A0E370DF81E28A95F1F70895109639F0BA
:10029C008AEF90E00197F1F7A8951197C9F70895A7
:00000001FF
