:100000000C9434000C9400000C9400000C9400003C
:100010000C9400000C9400000C9400000C94000060
:100020000C9400000C9400000C9400000C94000050
:100030000C9400000C9400000C9400000C94000040
:100040000C9400000C9400000C9400000C94000030
:100050000C9400004C45442000203A20000080C051
:10006000020080015E000000F894EE27ECBBF1E096
:10007000FBBFEBBFE5BF8DE0A2E0BB27ED938A9508
:10008000E9F780E094E0A0E6ED930197E9F7E0E678
:10009000F0E085919591009761F0A591B59105905B
:1000A0001590BF01F00105900D920197E1F7FB015A
:1000B000F0CFEFE5EDBFE4E0EEBFC0E6D1E00C9499
:1000C0003D02AA93E881E064E7B983E08A95F1F7FD
:1000D000369A349BFECF349AE4B1F5B10C94FD020C
:1000E00044245524E0E1F0E04E165F060CF046C0D3
:1000F000D201E8E0F0E00E94FF0211F4C49801C0D0
:10010000C49AD201E4E0F0E00E94FF0211F4C59825
:1001100001C0C59AD201E2E0F0E00E94FF0211F4B2
:10012000C69801C0C69AF201A1E0B0E00E947C032B
:10013000E03011F4C79801C0C79AF2010E9407038A
:10014000EA0FFB1FFF93EF93A0E0BBDFAF91BF91DE
:10015000ED93FC93F2010E940703AE0FBF1F0D90B9
:100160001C90F3010E9407030E940C030E161F0649
:100170000CF42301F20131962F01B4CFE0E0EA93B1
:10018000A0E00E949602A4E5B0E00E94C202D30162
:100190000E941103D3010E941D03A9E5B0E00E9453
:1001A000C202F3010E9407030E940C03DF01E8EE84
:1001B000F3E00E946903DF010E941D03F3010E9426
:1001C00007030E940C03DF01E4E6F0E00E946903EC
:1001D000DF010E941D03F3010E9407030E940C032C
:1001E000DF010E941103F3010E9407030E940C0328
:1001F000DF010E941D030895BA93AA93AE81BF81C7
:10020000A130EFEFBE0724F4E1E0FFEFEE83FF83C0
:10021000AE81BF81A030E1E0BE0724F0EFEFF0E057
:10022000EE83FF83AC81BD81A130EFEFBE0724F4E4
:10023000E1E0FFEFEC83FD83AC81BD81A030E1E024
:10024000BE0724F0EFEFF0E0EC83FD83AA81BB81D1
:10025000A130EFEFBE0724F4E1E0FFEFEA83FB8378
:10026000AA81BB81A030E1E0BE0724F0EFEFF0E00F
:10027000EA83FB83A881B981A130EFEFBE0724F4A4
:10028000E1E0FFEFE883F983A881B981A030E1E0E4
:10029000BE0724F0EFEFF0E0E883F983AF81AA23F3
:1002A0001AF09098EE8106C0AF81AA2322F4909AAA
:1002B000EE81E150ECBFAD81AA231AF09098EC8159
:1002C00006C0AD81AA2322F4909AEC81E150ECBFE4
:1002D000A981AA231AF09098E88106C0A981AA23CF
:1002E00022F4909AE881E150ECBFAB81AA231AF086
:1002F0009098EA8106C0AB81AA2322F4909AEA8101
:10030000E150ECBF28960895F30181D185D1EC3BF3
:10031000A2E0FA070CF0B0C0062C072831F494D103
:1003200093D197D1A1E0BFEFA6C0E1E0F0E0E615E0
:10033000F70531F493D188D196D1A1E0BFEF9BC0EE
:10034000E2E0F0E0E615F70531F492D17DD190D1ED
:10035000A1E0BFEF90C0E3E0F0E0E615F70531F46F
:1003600082D172D17BD1A1E0BFEF85C0E4E0F0E0A3
:10037000E615F70531F46DD167D166D1A1E0BFEF85
:100380007AC0E5E0F0E0E615F70529F462D166D120
:10039000EFEFF0E06CC0E6E0F0E0E615F70531F4D1
:1003A00058D166D151D1A0E0B0E065C0E7E0F0E0FF
:1003B000E615F70531F44DD156D146D1A0E8B0E0AD
:1003C0005AC0E8E0F0E0E615F70531F442D141D13A
:1003D0003BD1AFEFB0E04FC0E9E0F0E0E615F70544
:1003E00031F441D136D13AD1AFEFB0E044C0EAE0C8
:1003F000F0E0E615F70531F43BD12BD139D1AFEF61
:10040000B0E039C0EBE0F0E0E615F70531F426D1B5
:1004100020D129D1AFEFB0E02EC0ECE0F0E0E6153E
:10042000F70531F411D115D114D1AFEFB0E023C0ED
:10043000EDE0F0E0E615F70531F406D114D109D16D
:10044000A0E8B0E018C0EEE0F0E0E615F70531F402
:10045000FBD00ED1FED0A0E0B0E00DC0EFE0F0E0A8
:10046000E615F70549F4F0D0F9D0E1E0FFEFFA9393
:10047000EA93A0E8BFEFC0DE0895E0E0EABBEBBB83
:10048000ECEFE7BBE0E0E8BBE4BBE5BBEFEFE1BBD3
:10049000E0E0E2BBEBE6E3BFE0E0E2BFECBFE1EAB5
:1004A000EFBDEBE0EEBDE0E0EDBDECBDE7BDE6BDD0
:1004B000EBBDEABDE9BDE8BDE2BDECE6E5BDE0E0CF
:1004C000E4BDE3BDE9BFE5BFE4BFEAB9E0E8E8B9F0
:1004D000E0E4E7B9E4E8E6B9E0E0E0BFEDB9E6BFA3
:1004E000A0E163D0FDDD10DFFDCFFFCFAA93E5B320
:1004F000EF70AE2FE881E07FEA2BE5BB82E08A95C2
:10050000F1F7AA9A82E08A95F1F7AA9882E08A9593
:10051000F1F773C0AA93A881E9DFE881E295E88347
:10052000A881E4DF81E18A95F1F767C0AA93E881A9
:10053000F0E0E058FE4FE081A981AE0FEBDF99803B
:10054000888022960895A2E098D0ACE0E3DFA1E095
:1005500094D0E0E08E2E9E2E0895AA93A881AA3012
:1005600011F09B1448F0E0E0EA938394A82DDEDFBD
:10057000A881AA3009F441C09394A89AA881CADF3F
:10058000A8983BC0BA93AA931A93E981FA8131964D
:10059000E983FA833197E4911E2FE03019F0A12FFF
:1005A000DCDFF3CF188123960895AA93E4B3E06FBC
:1005B000E4BBA29AA09AA19AAA98A898A998B880F0
:1005C000E881E058E0938201E881E054E093830100
:1005D000A4E1B0E00E94480355D054D053D0A0E22B
:1005E00085DF81E28A95F1F7A8E294DFA4E092DF4B
:1005F000A5E890DFA6E08EDFA6DF219608950E9491
:100600006903A1E0B0E00E947C03E0300895A0E619
:10061000B1E0EE0FFF1F0895AE0FBF1F0E949403BD
:100620000895EAE0F0E00E946903DF01EAE0F0E00B
:100630000E946E03E05DAE2F90CFEAE0F0E00E94F2
:100640006E03E05DAE2F89CFEFEFF0E0FA93EA930F
:100650000895E1E0FFEFFA93EA930895E0E8F0E00F
:10066000FA93EA930895E0E8FFEFFA93EA93089586
:10067000E0E0F0E0FA93EA9308954CDFA3E0B0E005
:100680000C944803A0E332DF81E28A95F1F70895E4
:10069000109639F08AEF90E00197F1F7A89511973D
:1006A000C9F70895F195E195F040089500241124CB
:1006B00090E1AA0FBB1F001C111C0E1A1F0A18F490
:1006C0000E0E1F1E01C0A1609A9599F7FD01D00181
:1006D00008951CD0EBDF0EF4E5DF0895E894B7FF32
:1006E00004C0A095B09511966894F7FDDBDFDEDFBE
:1006F000FD010EF4D7DF0895E894F7FF02C0D2DFC2
:100700006894EA23FB230EF4CDDF0895E894F7FF05
:1007100002C0C8DF6894B7FF06C0A095B0951196D7
:1007200000F8039400FA0895ED91FC911197089553
:00000001FF
