:0A0000000C942F000C9400000C94E7
:10000A0000000C9400000C9400000C9400000C9466
:10001A0000000C9400000C9400000C9400000C9456
:10002A0000000C9400000C9400000C9400000C9446
:10003A0000000C9400000C9400000C9400000C9436
:10004A0000000C9400000C94000080C002006001C3
:10005A0054000000F894EE27ECBBF1E0FBBFEBBFC5
:10006A00E5BF8DE0A2E0BB27ED938A95E9F780E032
:10007A0094E0A0E6ED930197E9F7E6E5F0E08591D3
:10008A009591009761F0A591B59105901590BF01E2
:10009A00F00105900D920197E1F7FB01F0CFEFE532
:1000AA00EDBFE4E0EEBFC0E6D1E00C946B00AA938A
:1000BA00E881E064E7B983E08A95F1F7369A349BE0
:1000CA00FECF349AE4B1F5B10C947E01E0EFEABBBD
:1000DA00E0E0EBBBE8EFE7BBE0E0E8BBE4BBE5BB95
:1000EA00EFEFE1BBE0E0E2BBEBE6E3BFE0E0E2BF5B
:1000FA00ECBFE1EAEFBDEBE0EEBDE0E0EDBDECBD4B
:10010A00E7BDE6BDEBBDEABDE9BDE8BDE2BDECE693
:10011A00E5BDE0E0E4BDE3BDE9BFE5BFE4BFEAB9A0
:10012A00E0E8E8B9E0E4E7B9E4E8E6B9E0E0E0BF2E
:10013A00EDB9E6BFA0E10E945301DC9ADD98DE9892
:10014A00DF98A0E0B4DF4F01E0E0EA93A0E00E946C
:10015A000501D401E8EEF3E00E948001E4E6F0E054
:10016A000E948001EAE0F0E00E948001EAE0F0E00B
:10017A000E94B101E05DAE2F0E942801DECFFFCFC1
:10018A00FFE0FA95F1F70895A4B3AF70A4BBA99A5A
:10019A00A898F6DFAA9AF4DFA3B3AA98F1DFAA9A7D
:1001AA00EFDFAA98A7FDF5CF0895A07FAB2BA5BBDB
:1001BA00AA9A0E94C500AA980E94C5000895AA9307
:1001CA00A998A4B3A76FA4BBB5B3BF70A881EDDF8C
:1001DA00A881A295EADFA99A0C947E01AA9A0E94A4
:1001EA00C500E3B3AA980E94C500E07F08950E9463
:1001FA00C500F4DFAE2FF2DFA998E295EA2B089545
:10020A00AA930E94C900E881F0E0E05AFE4FE0811B
:10021A00A981AE0F0E94E400B980A88022960895B1
:10022A000E94C900A2E00E94E4000E94C900ACE05A
:10023A000E94E4000E94C900A1E00E94E400E0E0FC
:10024A00AE2EBE2E0895AA93EF93FF93A8816894C9
:10025A00AA3019F0E894BD1430F0A394E0E0EA93D0
:10026A00AA2DCEDF36F0B3948FDFA89AA8810E9418
:10027A00E400FF91EF910C947E01AA27BB27119706
:10028A00F1F70895AA93A998A4B3A76FA4BBB5B32D
:10029A00BF70A8810E94DA00A99A2BC0AA93AA98D3
:1002AA00A898D880E881E058E0936201E881E05498
:1002BA00E09363012DD02CD02BD0DFDFA0E2E2DF68
:1002CA00DCDFA8E229D0A4E027D0A5E825D0A4B392
:1002DA00AF70A4BBA99A0E94FC00E53011F0E0E0DF
:1002EA0008C00E94C900A6E00E94E4000E9415010D
:1002FA00E1E0219608950E94AC01DF01EAE0F0E016
:10030A000E94B101E05DAE2F0E942801D401089538
:10031A000E944201A0E3B6CF0E94E4000C9442017D
:10032A00F195E195F04008950024112490E1AA0F77
:10033A00BB1F001C111C0E1A1F0A18F40E0E1F1EDA
:10034A0001C0A1609A9599F7FD01D001089512D0D4
:10035A00EBDF0EF4E5DF0895E894B7FF04C0A0953B
:10036A00B09511966894F7FDDBDFDEDFFD010EF430
:10037A00D7DF0895E894F7FF02C0D2DF6894B7FF89
:10038A0006C0A095B095119600F8039400FA089556
:00000001FF
