:060000000C9436000C9484
:1000060000000C9400000C9400000C9400000C946A
:1000160000000C9400000C9400000C9400000C945A
:1000260000000C9400000C9400000C9400000C944A
:1000360000000C9400000C9400000C9400000C943A
:1000460000000C9400000C9400000C9400006172F7
:100056006D696E00617461726F64000080C0020099
:10006600600162000000F894EE27ECBBF1E0FBBFF4
:10007600EBBFE5BFF8E1F1BDE1BD8DE0A2E0BB2736
:10008600ED938A95E9F780E094E0A0E6ED93019779
:10009600E9F7E4E6F0E085919591009761F0A59186
:1000A600B59105901590BF01F00105900D9201974D
:1000B600E1F7FB01F0CFEFE5EDBFE4E0EEBFC0E610
:1000C600D1E00C946600E0E0EBBBEABBE8BBE7BB23
:1000D600E5BBE4BBE2BBE1BBE3BFE2BFECBFEFBD08
:1000E600EEBDEDBDECBDE7BDE6BDEBBDEABDE9BDD0
:1000F600E8BDE2BDE5BDE4BDE3BDE5BFE4BFE9BFE4
:10010600EAB9E0E8E8B9E0E0E0BFEDB9E6BFA0E1B2
:1001160080D0E0E0EA93A0E03DD0A4E5B0E066D070
:10012600E0E0EA93A1E036D0AAE5B0E05FD0C4985B
:10013600C598C698C7989098E1E0ECBF9198E1E021
:10014600F0E0F9BDE8BD9298E3BD9398FBBDEABD2A
:10015600E0CFFFCFAA93EBB3EF70AE2FE881E07F3D
:10016600EA2BEBBB81E08A95F1F7DA9A82E08A9571
:10017600F1F7DA9882E08A95F1F773C0AA93A8811D
:10018600E9DFE881E295E883A881E4DF81E18A95E9
:10019600F1F767C0AA93E881F0E0E05AFE4FE081EC
:1001A600A981AE0FEBDF5980488022960895A2E020
:1001B6005AD0ACE0E3DFA1E056D0E0E04E2E5E2E52
:1001C6000895AA93A881AA3011F0571448F0E0E0E8
:1001D600EA934394A42DDEDFA881AA3009F441C036
:1001E6005394D89AA881CADFD8983BC0BA93AA93E9
:1001F6001A93E981FA813196E983FA833197E4917A
:100206001E2FE03019F0A12FDCDFF3CF18812396E3
:100216000895AA93EAB3E06FEABBD29AD09AD19A2C
:10022600DA98D898D9987880E881E058E093620106
:10023600E881E054E0936301A4E1B0E00E9441014B
:1002460017D016D015D0A0E285DF81E28A95F1F7A6
:10025600A8E294DFA4E092DFA5E890DFA6E08EDFB7
:10026600A6DF219608958ADFA3E0B0E00C94410151
:10027600A0E370DF81E28A95F1F70895109639F0D0
:100286008AEF90E00197F1F7A8951197C9F70895BD
:00000001FF
