:020000000C945E
:100002002F000C9400000C9400000C9400000C943F
:1000120000000C9400000C9400000C9400000C945E
:1000220000000C9400000C9400000C9400000C944E
:1000320000000C9400000C9400000C9400000C943E
:1000420000000C9400000C9400000C9400000C942E
:10005200000080C002008E0154000000F894EE27D8
:10006200ECBBF1E0FBBFEBBFE5BFF8E1F1BDE1BDE9
:100072008DE0A2E0BB27ED938A95E9F780E094E05A
:10008200A0E6ED930197E9F7E6E5F0E08591959119
:10009200009761F0A591B59105901590BF01F0010F
:1000A20005900D920197E1F7FB01F0CFEFE5EDBF6F
:1000B200E4E0EEBFC0E6D1E00C9446021A930E943F
:1000C2002806E0ECEA930E945C06E981EA930E942A
:1000D2005C060E942806E1ECEA930E945C06E0E0DE
:1000E200EA930E9441061E2F0E943706E12F1881D3
:1000F2000C94DB04E881E064E7B983E08A95F1F7C8
:10010200369A349BFECF349AE4B1F5B10C9459057A
:10011200A895E0E0E0938C01E0938D010E945B05DD
:10012200509714F00C94E5000E945B050E94600554
:1001320011F4C49801C0C49A0E945B05E2E0F0E0A9
:100142000E94660511F4C59801C0C59A0E945B051C
:10015200E4E0F0E00E94660511F4C69801C0C69A78
:100162000E945B05E8E0F0E00E94660511F4C79882
:1001720001C0C79A0E946A05EA0FFB1FFF93EF9323
:10018200E0E0EA93B7DFAF91BF91ED93FC930E9459
:1001920073050D901C900E946A05AE0FBF1F0E944E
:1001A200A807E015F10544F4E0918C01F0918D016E
:1001B200E0938A01F0938B01ACE8B1E0ED91FD91FF
:1001C2003196FE93EE93AACFA895E0E00E947E05B9
:1001D2000E9483050E948A050E9483050E9495055C
:1001E200EAE3EA930E94F504A8950E9473050E942F
:1001F200A807DF01E8EEF3E00E948A050E9473057A
:100202000E94A807DF010E949B050E9473050E94BD
:10021200A807DF010E949E050E9473050E94A8079D
:10022200DF010E94A105A895E7E0EA9363DF3F01A1
:10023200E3E00E94A405D3010E949B05D3010E9422
:100242009E05A895E6E0EA9355DF4F01E0E00E94A3
:10025200A405D4010E949B05D4010E949E05A89585
:10026200E5E0EA9347DF5F01E6E00E94A405D501DD
:100272000E949B05D5010E949E05A895A895E4E0E1
:10028200EA9338DFE0936401F0936501E9E00E94AC
:10029200A4050E94A9050E949B050E94A9050E942F
:1002A2009E05A895A895E3E0EA9324DFE093660112
:1002B200F0936701ECE00E94A4050E94AE050E9443
:1002C2009B050E94AE050E949E05A895A895E2E0B6
:1002D200EA9310DFE0936001F0936101EEE00E9487
:1002E2007E050E94B3050E949B050E94B3050E94F1
:1002F2009E05A895A895E1E0EA93FCDEE0936201F1
:10030200F0936301EBE00E947E050E94B8050E9413
:100312009B050E94B8050E949E05A8950895A89580
:10032200A881B981A030E1E0BE0724F0EFEFF0E050
:10033200E883F983A881B981A130EFEFBE0724F4E5
:10034200E1E0FFEFE883F983AA81BB81A030E1E01D
:10035200BE0724F0EFEFF0E0EA83FB83AA81BB81C2
:10036200A130EFEFBE0724F4E1E0FFEFEA83FB8365
:10037200AC81BD81A030E1E0BE0724F0EFEFF0E0F8
:10038200EC83FD83AC81BD81A130EFEFBE0724F485
:10039200E1E0FFEFEC83FD83AE81BF81A030E1E0BD
:1003A200BE0724F0EFEFF0E0EE83FF83AE81BF8162
:1003B200A130EFEFBE0724F4E1E0FFEFEE83FF830D
:1003C200A895A881B9810E94D50734F4A895909880
:1003D200E881ECBFA8950BC0A881B9810E94D5071E
:1003E20034F0A895909AE881E150ECBFA895AA81D3
:1003F200BB810E94D50744F4A8959198EA81FB81BC
:10040200F9BDE8BDA8950EC0AA81BB810E94D5079F
:100412004CF0A895919AEA81FB81E150FF4FF9BD1A
:10042200E8BDA895AC81BD810E94D50744F4A8958A
:100432009298EC81FD81FBBDEABDA8950EC0AC810E
:10044200BD810E94D5074CF0A895929AEC81FD815E
:10045200E150FF4FFBBDEABDA895AE81BF810E946E
:10046200D50734F4A8959398EE81E3BDA8950BC007
:10047200AE81BF810E94D50734F0A895939AEE8190
:10048200E150E3BDA89528960895E0E0EBBBEABBF6
:10049200E8BBECEFE7BBE0E0E5BBE4BBE2BBEFEFC0
:1004A200E1BBEBE6E3BFE0E0E2BFECBFE1EAEFBDB8
:1004B200EBE0EEBDE0E0EDBDECBDE7BDE6BDEBBDC2
:1004C200EABDE9BDE8BDE2BDECE6E5BDE0E0E4BDC4
:1004D200E3BDE5BFE4BFE9BFE0E8E8B9E0E0E0BFC3
:1004E200E0E4E7B9E1E8E6B90E942306E0E1EA9335
:1004F2000E942C05ECE1E1BDECE0E1BD9B9B11C04B
:10050200A895E1E0EA930E945F00A0E0B0E0F0E08D
:100512000E94BC07E8EEF3E0FA93EA930E947506A4
:10052200A895A895E1E0EA930E945F000E2E11249F
:10053200A0E0B0E00E94AC07D001AE1BBF0B2D01C2
:1005420000244014500424F4F201E150FF4F2F0123
:10055200E0E8F0E0E415F50524F4EFEFF0E04E1AE0
:100562005F0AE0E8F0E04E165F060CF42201A8955F
:1005720000244014500464F0A895E8E00E947E052F
:10058200D2010E949E05D2010E94A105A89511C028
:10059200A895E8E00E947E05F2010E946307DF0150
:1005A2000E949E05F2010E946307DF010E94A105DD
:1005B200A895E2EEFFEFE415F5052CF4E4E1F0E096
:1005C2004E165F060CF010C0F2010E9463070E94F3
:1005D2006F070E94E706A0E0B0E080E690E40E9488
:1005E20015070E94B00603C0F2010E9463072F01A3
:1005F200A895F501E819F9096F010E9489000E9486
:10060200B305A935E2E0BE072CF00E9473050E94F3
:10061200BD050CF003C00E94C30532C00E94A905AB
:10062200A935E2E0BE072CF00E9473050E94BD05C9
:100632000CF003C00E94C30523C00E94B805A9356F
:10064200E2E0BE072CF00E9473050E94BD050CF08B
:1006520003C00E94C30514C00E94AE05A935E2E0A2
:10066200BE072CF00E9473050E94BD050CF003C06A
:100672000E94C30505C0E0E0E0936801E0936901D0
:10068200A895A0916801B0916901119729F5E8EC4C
:10069200F0E06E167F0664F4E1E0FFEF0E94CA0507
:1006A2000E94D205F6010E94D905EFEFF0E00BC0DF
:1006B200EFEFF0E00E94CA050E94D905F6010E9400
:1006C200D205E1E0FFEFEC19FD09E40DF51DFA9307
:1006D200EA930E9490011BC10E9473050E94BD050E
:1006E20014F00C945604A895E0918A01F0918B01C4
:1006F200309729F40E94E0050E94E605CBC00E94D3
:10070200EC05119751F40E94E005F201E058FF4F09
:100712000E94E6050E94F105C2C00E94EC051297F4
:1007220051F40E94E005F201EF5FF0400E94E605FD
:100732000E94F705B4C00E94EC05139751F4F20130
:10074200E058FF4F0E94E6050E94F1050E94F7055E
:10075200A6C00E94EC05149749F4F20130960E945B
:10076200E6050E94FD050E94F70599C00E94EC056E
:10077200159741F4F201E058F0400E94E6050E940C
:1007820002068DC00E94EC05169741F40E940806ED
:100792000E940C06F201E058FF4F81C00E94EC0556
:1007A200179741F40E9408060E940C06F201E058D5
:1007B200FF4F75C00E94EC05189751F4F201EF5FEC
:1007C200F0400E94FD050E940C06F201309667C0BF
:1007D2000E94EC05199741F4F201E058F0400E94A2
:1007E200E6050E9402065BC00E94EC051A9769F4B6
:1007F200F201EF5FF040FA93EA93FA93EA930E94D0
:10080200E005F201E150FF4F4AC00E94EC051B9740
:1008120041F40E9408060E940C06F201E058FF4FC4
:100822003EC00E94EC051C9751F4F201EF5FF040CC
:100832000E94FD050E940C06F201309630C00E9413
:10084200EC051D9771F4F201EF5FF040FA93EA9321
:10085200F201E058FF4F0E940C06F201E058F0400E
:100862001EC00E94EC051E9749F4F201EF5FF040B2
:100872000E940C06F201E150FF4F0CC00E94EC05F1
:100882001F9789F4F201E058FF4F0E940C06F20113
:10089200E058F040FA93EA93F201EF5FF040FA93E6
:1008A200EA930E949001A89532C0E8ECF0E06E163F
:1008B2007F0674F4F201EF5FF0400E940F060E947F
:1008C200F705EC0DFD1D0E94F705EC19FD091BC093
:1008D200ECE2F1E0E615F70574F4F201E150FF4FA6
:1008E2000E940F060E94E605EC0DFD1D0E94E60522
:1008F200EC19FD0908C0F20130960E94FD050E9424
:10090200FD050E94FD05FA93EA930E94900109CE2B
:10091200FFCFFFE0FA95F1F70895A4B3AF70A4BB3F
:10092200A99AA898F6DFAA9AF4DFA3B3AA98F1DFEE
:10093200AA9AEFDFAA98A7FDF5CF0895A07FAB2B67
:10094200A5BBAA9A0E948A04AA980E948A040895C2
:10095200A998A4B3A76FA4BBB5B3BF70A881EEDFFB
:10096200A881A295EBDFA99A0C945905AA9A0E9434
:100972008A04E3B3AA980E948A04E07F08950E9441
:100982008A04F4DFAE2FF2DFA998E295EA2B0895EC
:100992000E948E04E881F0E0E257FE4FE081A981D7
:1009A200EA0FEA930E94A904E981E0939201E881A7
:1009B200E0939301229608950E948E04E2E0EA9366
:1009C2000E94A9040E948E04ECE0EA930E94A9040A
:1009D2000E948E04E1E0EA930E94A904E0E0E09321
:1009E2009301E09392010895EF93FF93A881689495
:1009F200AA3039F0E894E0919401A0919201AE17E7
:100A020060F0E0919301EF5FE0939301E0E0EA93FD
:100A1200E0919301EA93BCDF56F0E0919201EF5F1F
:100A2200E09392017ADFA89AA881AA9391DFFF91BD
:100A3200EF910C945905AA27BB271197F1F7089556
:100A4200A998A4B3A76FA4BBB5B3BF70A8810E9435
:100A52009F04A99A2DC0AA98A898E881E0939401CE
:100A6200E058E0939001E881E054E0939101DFD0F7
:100A7200DED0DDD0E0DFE0E2EA93E2DFDCDFE8E2D5
:100A8200DCD0E4E0DAD0E5E8D8D0A4B3AF70A4BB00
:100A9200A99A0E94C004E53011F0E0E009C00E946A
:100AA2008E04E6E0EA930E94A9040E94DD04E1E0DC
:100AB20021960895A0918C01B0918D010895E2E0F4
:100AC200F0E00E948C07E03008950E948707DF0162
:100AD200F6CFE0918C01F0918D01AAE6B1E0EE0F24
:100AE200FF1F0895E0918A01F0918B01AAE6B1E01F
:100AF200EE0FFF1FAE0FBF1F0895EA93E0E0EA93E7
:100B02000C94C904A0918A01B0918B01EAE0F0E053
:100B120008950E948707DF01EAE0F0E00E948C0757
:100B2200E05DEA930C94F5040E948C07E05DEA9381
:100B32000C94F504E4E6F0E0ECCFEAE0F0E0E9CF73
:100B4200EAE0F0E0F1CFEA93E1E0EA930C94C90421
:100B5200A0916401B09165010895A0916201B091E4
:100B620063010895A0916001B09161010895A0917F
:100B72006601B091670108950E94A807EC3BA2E0CC
:100B8200FA070895E1E0F0E0E0936801F09369016B
:100B92000895EC19FD09E40DF51DFA93EA93F601A7
:100BA2000895EF5FF040E40DF51DFA93EA9308957E
:100BB200E150FF4FE40DF51DFA93EA930895F20117
:100BC200E150FF4FFA93EA930895FA93EA93F20100
:100BD200EF5FF0400895A0918A01B0918B010895D2
:100BE200FA93EA93F201E058F0400895FA93EA93F7
:100BF200F201E150FF4F0895FA93EA93F201309621
:100C02000895FA93EA93F201E058FF4FEFCFF20111
:100C1200EF5FF040E5CFFA93EA93D1CFDF01EC1911
:100C2200FD09FA93EA93FD01EC0DFD1D08950E9462
:100C32001C05E0E3EA930C942105EA930E94A904BF
:100C42000C941C05C198C098B99AB89815C0B89868
:100C5200B998EE270000B09B0895B19B089504D087
:100C6200B89A02D0B99AE1E062E007C0B89AB99A9C
:100C720003D0B998F9DFB89863E06A95F1F708955F
:100C820078E0B998F1DFB19BFECFEEDF8894B0999E
:100C92000894B99AF1DFEE1F7A9599F77991772343
:100CA20011F4B89801C0B89ADFDFB998E5DFB99AB4
:100CB200DBDFB898D9CFE99178E0EE0F10F4B8985D
:100CC20001C0B89AD9DFB998CFDFB19BFECFCCDF94
:100CD200B99A7A9591F7B898C7DFB998CDDFE1E074
:100CE200B099EE27B99A0895E991F991309639F0C1
:100CF2008AEF90E00197F1F7A8953197C9F7089527
:100D0200552342F4503811F4E0FF04C03196691FB4
:100D1200791F6BF050E8572711F45F9373C05F3F60
:100D220031F0660F000C57956795752F08955F9304
:100D320000200AF073C06CC050E8192E1522880FEB
:100D4200991F9527550F879550E8072E0522660FA4
:100D5200771F7527550F67950895689401C0E89429
:100D62005F93F2DF703818F07F3F08F44BC056E112
:100D7200571BAAF4519558300EF4593030F0EFEF6A
:100D8200FFEF6FEF7FE777F91AC077275523B9F0A6
:100D9200EE0FFF1F661F771F5A95D1F710C07727F6
:100DA200583028F0EF2FF62F672F5850F9CF5523E0
:100DB20031F076956795F795E7955A95D1F700202A
:100DC2000AF484D05F910895689401C0E894309742
:100DD20060407040B1F0002426F0772312F40094B2
:100DE20075D0172E7EE1112032F07A95EE0FFF1F9B
:100DF200661F111CF9CFEF2FF62F612D5F938ADF4B
:100E02005F910895EE27FF27662777275F91089560
:100E1200EFEFFFEF6FE77FEF5F910895EFEFFFEFE7
:100E22006FE77FE75F9108955F9386DF703851F334
:100E3200903841F301240894791F23F41CF3002015
:100E42003AF3ECCF0F921F932F933F934F931127B7
:100E520022279927689FA0018F9F302D410D591F8E
:100E62006B9F300D411D591F8E9F27D0BF9F25D0EC
:100E72006A9F23D0BE9F1DD0AF9F1BD0AE9F110D86
:100E8200291F391F491F591FE32FF42F652F522F96
:100E92004F913F912F911F910F9066232AF0550F8A
:100EA200EE1FFF1F661F02C073954BF229DF5F9191
:100EB2000895100D211D391F02C0200D311D491F3B
:100EC200591F0895F195E195F0400895F0956095C8
:100ED2007095E195FF4F6F4F7F4F08956F2F660F0B
:100EE200660B762F08950024112490E1AA0FBB1FF0
:100EF200001C111C0E1A1F0A18F40E0E1F1E01C030
:100F0200A1609A9599F7FD01D001089512D0EBDF07
:100F12000EF4D8DF0895E894B7FF04C0A095B09509
:100F220011966894F7FDCEDFDEDFFD010EF4CADF15
:100F32000895E894F7FF02C0C5DF6894B7FF06C0C2
:100F4200A095B095119600F8039400FA0895ED91DA
:100F5200FC9111970895119602D0FE2F1197E199F5
:100F6200FECFFF93FFB7F894AEBBBFBBE09AEDB3E1
:100F7200FFBFFF91089507D01196EF93EF2F03D093
:100F8200EF9111970895E19B02C0A895FCCF9FB7FE
:100F9200F894AEBBBFBBE09A8DB3E81719F0EDBB76
:100FA200E29AE19A9FBF089500240A160B0608955B
:00000001FF
