:020000000C945E
:100002002F000C9400000C9400000C9400000C943F
:1000120000000C9400000C9400000C9400000C945E
:1000220000000C9400000C9400000C9400000C944E
:1000320000000C9400000C9400000C9400000C943E
:1000420000000C9400000C9400000C9400000C942E
:10005200000080C002008E0154000000F894EE27D8
:10006200ECBBF1E0FBBFEBBFE5BFF8E1F1BDE1BDE9
:100072008DE0A2E0BB27ED938A95E9F780E094E05A
:10008200A0E6ED930197E9F7E6E5F0E08591959119
:10009200009761F0A591B59105901590BF01F0010F
:1000A20005900D920197E1F7FB01F0CFEFE5EDBF6F
:1000B200E4E0EEBFC0E6D1E00C9452021A930E9433
:1000C200C205E0ECEA930E94F605E981EA930E94F8
:1000D200F6050E94C205E1ECEA930E94F605E0E013
:1000E200EA930E94DB051E2F0E94D105E12F1881A1
:1000F2000C949104E881E064E7B983E08A95F1F712
:10010200369A349BFECF349AE4B1F5B10C940F05C4
:10011200A895E0E0E0938C01E0938D010E94110527
:10012200509714F00C94E5000E9411050E941605E8
:1001320011F4C49801C0C49A0E941105E2E0F0E0F3
:100142000E941C0511F4C59801C0C59A0E941105B0
:10015200E4E0F0E00E941C0511F4C69801C0C69AC2
:100162000E941105E8E0F0E00E941C0511F4C79816
:1001720001C0C79A0E942005EA0FFB1FFF93EF936D
:10018200E0E0EA93B7DFAF91BF91ED93FC930E9459
:1001920029050D901C900E942005AE0FBF1F0E94E2
:1001A2006006E015F10544F4E0918C01F0918D01B7
:1001B200E0938A01F0938B01ACE8B1E0ED91FD91FF
:1001C2003196FE93EE93AACFA895E0E00E94340503
:1001D2000E9439050E9440050E9439050E944B0584
:1001E200EAE3EA930E94AB04A8950E9429050E94C3
:1001F2006006DF01E8EEF3E00E9440050E94290557
:100202000E946006DF010E9451050E9429050E949A
:100212006006DF010E9454050E9429050E946006C3
:10022200DF010E945705A895E7E0EA9363DF3F01EB
:10023200E3E00E945A05D3010E945105D3010E94B6
:100242005405A895E6E0EA9355DF4F01E0E00E94ED
:100252005A05D4010E945105D4010E945405A89563
:10026200E5E0EA9347DF5F01E6E00E945A05D50127
:100272000E945105D5010E945405A895A895E4E075
:10028200EA9338DFE0936401F0936501E9E00E94AC
:100292005A05A0916401B09165010E945105A09197
:1002A2006401B09165010E945405A895A895E3E008
:1002B200EA9320DFE0936601F0936701ECE00E948D
:1002C2005A05A0916201B09163010E945105A0916B
:1002D2006201B09163010E945405A895A895E2E0DD
:1002E200EA9308DFE0936001F0936101EEE00E947F
:1002F20034050E945F050E9451050E945F050E941D
:100302005405A895A895E1E0EA93F4DEE093620132
:10031200F0936301EBE00E943405A0916601B09175
:1003220067010E945105A0916601B09167010E9488
:100332005405A8950895A895A881B981A030E1E057
:10034200BE0724F0EFEFF0E0E883F983A881B981DA
:10035200A130EFEFBE0724F4E1E0FFEFE883F98379
:10036200AA81BB81A030E1E0BE0724F0EFEFF0E00C
:10037200EA83FB83AA81BB81A130EFEFBE0724F49D
:10038200E1E0FFEFEA83FB83AC81BD81A030E1E0D5
:10039200BE0724F0EFEFF0E0EC83FD83AC81BD817A
:1003A200A130EFEFBE0724F4E1E0FFEFEC83FD8321
:1003B200AE81BF81A030E1E0BE0724F0EFEFF0E0B4
:1003C200EE83FF83AE81BF81A130EFEFBE0724F43D
:1003D200E1E0FFEFEE83FF83A895A881B9810E9437
:1003E2008D0634F4A8959098E881ECBFA8950BC0CF
:1003F200A881B9810E948D0634F0A895909AE8816F
:10040200E150ECBFA895AA81BB810E948D0644F4FD
:10041200A8959198EA81FB81F9BDE8BDA8950EC027
:10042200AA81BB810E948D064CF0A895919AEA811F
:10043200FB81E150FF4FF9BDE8BDA895AC81BD81BC
:100442000E948D0644F4A8959298EC81FD81FBBD33
:10045200EABDA8950EC0AC81BD810E948D064CF00C
:10046200A895929AEC81FD81E150FF4FFBBDEABD58
:10047200A895AE81BF810E948D0634F4A895939809
:10048200EE81E3BDA8950BC0AE81BF810E948D06AF
:1004920034F0A895939AEE81E150E3BDA895289691
:1004A2000895E0E0EBBBEABBE8BBECEFE7BBE0E0C2
:1004B200E5BBE4BBE2BBEFEFE1BBEBE6E3BFE0E0B1
:1004C200E2BFECBFE1EAEFBDEBE0EEBDE0E0EDBD87
:1004D200ECBDE7BDE6BDEBBDEABDE9BDE8BDE2BDF1
:1004E200ECE6E5BDE0E0E4BDE3BDE5BFE4BFE9BFA6
:1004F200E0E8E8B9E0E0E0BFE0E4E7B9E3E8E6B964
:100502000E94BD05E0E1EA930E94E204ECE1E1BD54
:10051200ECE0E1BD9B9B11C0A895E1E0EA930E944B
:100522005F00A0E0B0E0F0E00E947406E8EEF3E0C5
:10053200FA93EA930E940F06A895A895E1E0EA9340
:100542000E945F000E2E1124A0E0B0E00E9464061B
:10055200D001AE1BBF0B2D0100244014500424F423
:10056200F201E150FF4F2F01E0E8F0E0E415F5055C
:1005720024F4EFEFF0E04E1A5F0AE0E8F0E04E16E6
:100582005F060CF42201A89500244014500464F084
:10059200A895E8E00E943405D2010E945405D201D8
:1005A2000E945705A89511C0A895E8E00E9434055D
:1005B200F2010E941B06DF010E945405F2010E9413
:1005C2001B06DF010E945705A895E7EEFFEFE41531
:1005D200F5052CF4E9E1F0E04E165F060CF008C0D8
:1005E200F2010E941B06A3E0B0E00E94270603C0AE
:1005F200F2010E941B062F010E948900F501E819F1
:10060200F9096F010E945F05A935E2E0BE0744F0D7
:100612000E9429050E946006EC3BA2E0FA070CF05A
:1006220007C0E1E0F0E0E0936801F093690105C0E2
:10063200E0E0E0936801E0936901A0916801B09164
:100642006901119729F5E8ECF0E06E167F0664F473
:10065200E1E0FFEF0E9464050E946C05F6010E9432
:100662007305EFEFF0E00BC0EFEFF0E00E946405DE
:100672000E947305F6010E946C05E1E0FFEFEC19A0
:10068200FD09E40DF51DFA93EA930E949C01F5C061
:100692000E9429050E946006EC3BA2E0FA0714F0D2
:1006A2000C943E04A895E2ECF1E0E815F9051CF47F
:1006B200EA15FB050CF01AC0A895E6EEF0E0E61587
:1006C200F7053CF40E947A050E9480050E9480058D
:1006D20007C00E9486050E948C05F201E150FF4F7F
:1006E200FA93EA930E949C01A895C6C0E0918A0100
:1006F200F0918B01309729F40E947A050E948005BF
:10070200B2C00E948F05119739F40E947A050E94A7
:1007120094050E949805ACC00E948F05129739F487
:100722000E9494050E9498050E949E05A1C00E9405
:100732008F05139739F4F20130960E9480050E94CA
:10074200A40596C00E948F05149739F40E9494055F
:100752000E9498050E949E058BC00E948F051597E6
:1007620029F40E94A9050E94AD0582C00E948F054E
:10077200169759F40E948605F201E058F0400E9453
:100782008C05F201E058FF4F73C00E948F05179746
:1007920041F40E9486050E948C05F201E150FF4F50
:1007A20067C00E948F05189749F40E948605F201DE
:1007B20030960E948C05F20130965AC00E948F0535
:1007C200199739F4F20130960E9480050E94A4051F
:1007D2004FC00E948F051A9729F40E94A9050E9412
:1007E200AD0546C00E948F051B9729F40E94A905FA
:1007F2000E94AD053DC00E948F051C9749F40E94DE
:100802008605F20130960E948C05F201309630C0C6
:100812000E948F051D9779F4E1E0FFEFFA93EA93C6
:10082200E0E8F0E0FA93EA93EFEFF0E0FA93EA936C
:10083200E0E8FFEF1DC00E948F051E9741F40E9461
:1008420086050E947A05F201E150FF4F0CC00E941A
:100852008F051F9789F4F201E058F0400E948C0541
:10086200F201E058FF4FFA93EA93F201EF5FF04092
:10087200FA93EA930E949C01A8955FCEFFCFFFE016
:10088200FA95F1F70895A4B3AF70A4BBA99AA898FA
:10089200F6DFAA9AF4DFA3B3AA98F1DFAA9AEFDFF0
:1008A200AA98A7FDF5CF0895A07FAB2BA5BBAA9A66
:1008B2000E944004AA980E9440040895A998A4B3F3
:1008C200A76FA4BBB5B3BF70A881EEDFA881A295C4
:1008D200EBDFA99A0C940F05AA9A0E944004E3B395
:1008E200AA980E944004E07F08950E944004F4DF29
:1008F200AE2FF2DFA998E295EA2B08950E944404F4
:10090200E881F0E0E257FE4FE081A981EA0FEA9325
:100912000E945F04E981E0939201E881E0939301F0
:10092200229608950E944404E2E0EA930E945F0442
:100932000E944404ECE0EA930E945F040E94440493
:10094200E1E0EA930E945F04E0E0E0939301E09328
:1009520092010895EF93FF93A8816894AA3039F029
:10096200E894E0919401A0919201AE1760F0E091B9
:100972009301EF5FE0939301E0E0EA93E09193014A
:10098200EA93BCDF56F0E0919201EF5FE0939201AF
:100992007ADFA89AA881AA9391DFFF91EF910C9434
:1009A2000F05AA27BB271197F1F70895A998A4B3B9
:1009B200A76FA4BBB5B3BF70A8810E945504A99AC2
:1009C2002DC0AA98A898E881E0939401E058E0939A
:1009D2009001E881E054E0939101C4D0C3D0C2D029
:1009E200E0DFE0E2EA93E2DFDCDFE8E2C0D0E4E06D
:1009F200BED0E5E8BCD0A4B3AF70A4BBA99A0E9454
:100A02007604E53011F0E0E009C00E944404E6E01B
:100A1200EA930E945F040E949304E1E02196089504
:100A2200A0918C01B0918D010895E2E0F0E00E9466
:100A32004406E03008950E943F06DF01F6CFE091C0
:100A42008C01F0918D01AAE6B1E0EE0FFF1F08952F
:100A5200E0918A01F0918B01AAE6B1E0EE0FFF1F4F
:100A6200AE0FBF1F0895EA93E0E0EA930C947F046F
:100A7200A0918A01B0918B01EAE0F0E008950E9412
:100A82003F06DF01EAE0F0E00E944406E05DEA93FF
:100A92000C94AB040E944406E05DEA930C94AB0410
:100AA200E4E6F0E0ECCFEAE0F0E0E9CFEAE0F0E003
:100AB200F1CFEA93E1E0EA930C947F04A091600104
:100AC200B09161010895EC19FD09E40DF51DFA9349
:100AD200EA93F6010895EF5FF040E40DF51DFA93F5
:100AE200EA930895E150FF4FE40DF51DFA93EA935E
:100AF2000895F201E150FF4FFA93EA930895FA93B1
:100B0200EA93F201EF5FF0400895F201EF5FF040E7
:100B1200FA93EA930895FA93EA93EBCFA0918A01AC
:100B2200B0918B010895F201E058FF4FE8CFFA939C
:100B3200EA93F201E058F0400895FA93EA93F20141
:100B4200E150FF4F0895FA93EA93F2013096F5CF00
:100B5200F201E058F040D3CFFA93EA93F201E05861
:100B6200FF4FEBCF0E94D204E0E3EA931FCFEA9358
:100B72000E945F040C94D204C198C098B99AB898A4
:100B820015C0B898B998EE270000B09B0895B19BA4
:100B9200089504D0B89A02D0B99AE1E062E007C0A1
:100BA200B89AB99A03D0B998F9DFB89863E06A9510
:100BB200F1F7089578E0B998F1DFB19BFECFEEDF4F
:100BC2008894B0990894B99AF1DFEE1F7A9599F753
:100BD2007991772311F4B89801C0B89ADFDFB998F8
:100BE200E5DFB99ADBDFB898D9CFE99178E0EE0F6B
:100BF20010F4B89801C0B89AD9DFB998CFDFB19B89
:100C0200FECFCCDFB99A7A9591F7B898C7DFB99839
:100C1200CDDFE1E0B099EE27B99A0895E991F99113
:100C2200309639F08AEF90E00197F1F7A895319765
:100C3200C9F70895F195E195F0400895FA9FF02DD6
:100C4200EB9FF00DEA9FE02DF10D08952AD0F6DF1B
:100C52000EF4F0DF08950024112490E1AA0FBB1FC7
:100C6200001C111C0E1A1F0A18F40E0E1F1E01C0C2
:100C7200A1609A9599F7FD01D001089512D0EBDF9A
:100C82000EF4D8DF0895E894B7FF04C0A095B0959C
:100C920011966894F7FDCEDFDEDFFD010EF4CADFA8
:100CA2000895E894F7FF02C0C5DF6894B7FF06C055
:100CB200A095B095119600F8039400FA0895ED916D
:100CC200FC9111970895119602D0FE2F1197E19988
:100CD200FECFFF93FFB7F894AEBBBFBBE09AEDB374
:100CE200FFBFFF91089507D01196EF93EF2F03D026
:100CF200EF9111970895E19B02C0A895FCCF9FB791
:100D0200F894AEBBBFBBE09A8DB3E81719F0EDBB08
:100D1200E29AE19A9FBF089500240A160B060895ED
:00000001FF
