:060000000C942F000C948B
:1000060000000C9400000C9400000C9400000C946A
:1000160000000C9400000C9400000C9400000C945A
:1000260000000C9400000C9400000C9400000C944A
:1000360000000C9400000C9400000C9400000C943A
:1000460000000C9400000C9400000C94000080C08A
:100056000200900154000000F894EE27ECBBF1E09A
:10006600FBBFEBBFE5BFF8E1F1BDE1BD8DE0A2E06E
:10007600BB27ED938A95E9F780E094E0A0E6ED933F
:100086000197E9F7E6E5F0E085919591009761F033
:10009600A591B59105901590BF01F00105900D92BF
:1000A6000197E1F7FB01F0CFEFE5EDBFE4E0EEBF2E
:1000B600C0E6D1E00C9446021A930E942106E0ECB9
:1000C600EA930E945506E981EA930E9455060E942A
:1000D6002106E1ECEA930E945506E0E0EA930E94CD
:1000E6003A061E2F0E943006E12F18810C94BD049B
:1000F600E881E064E7B983E08A95F1F7369A349BA4
:10010600FECF349AE4B1F5B10C943B05A895E0E036
:10011600E0938E01E0938F010E943D05509714F005
:100126000C94E5000E943D050E94420511F4C49816
:1001360001C0C49A0E943D05E2E0F0E00E94480535
:1001460011F4C59801C0C59A0E943D05E4E0F0E0AF
:100156000E94480511F4C69801C0C69A0E943D0542
:10016600E8E0F0E00E94480511F4C79801C0C79A7C
:100176000E944C05EA0FFB1FFF93EF93E0E0EA9322
:10018600B7DFAF91BF91ED93FC930E9455050D909B
:100196001C900E944C05AE0FBF1F0E94B206E015D0
:1001A600F10544F4E0918E01F0918F01E0938C010A
:1001B600F0938D01AEE8B1E0ED91FD913196FE939D
:1001C600EE93AACFA895E0E00E9460050E9465051F
:1001D6000E946C050E9465050E947705EAE3EA9392
:1001E6000E94D704A8950E9455050E94B206DF0119
:1001F600E8EEF3E00E946C050E9455050E94B206E7
:10020600DF010E947D050E9455050E94B206DF01AE
:100216000E9480050E9455050E94B206DF010E94D9
:100226008305A895E7E0EA9363DF3F01E3E00E94D8
:100236008605D3010E947D05D3010E948005A895FD
:10024600E6E0EA9355DF4F01E0E00E948605D4011F
:100256000E947D05D4010E948005A895E5E0EA93F9
:1002660047DF5F01E6E00E948605D5010E947D0515
:10027600D5010E948005A895A895E4E0EA9338DFA9
:10028600E0936601F0936701E9E00E9486050E940B
:100296008B050E947D050E948B050E948005A8950E
:1002A600A895E3E0EA9324DFE0936401F093650107
:1002B600ECE00E9486050E9490050E947D050E9442
:1002C60090050E948005A895A895E2E0EA9310DFC4
:1002D600E0936201F0936301EEE00E9460050E94E4
:1002E60095050E947D050E9495050E948005A895AA
:1002F600A895E1E0EA93FCDEE0936801F0936901DA
:10030600EBE00E9460050E949A050E947D050E940E
:100316009A050E948005A8950895A895A881B98197
:10032600A030E1E0BE0724F0EFEFF0E0E883F983C8
:10033600A881B981A130EFEFBE0724F4E1E0FFEF19
:10034600E883F983AA81BB81A030E1E0BE0724F0EF
:10035600EFEFF0E0EA83FB83AA81BB81A130EFEFE8
:10036600BE0724F4E1E0FFEFEA83FB83AC81BD81A5
:10037600A030E1E0BE0724F0EFEFF0E0EC83FD8370
:10038600AC81BD81A130EFEFBE0724F4E1E0FFEFC1
:10039600EC83FD83AE81BF81A030E1E0BE0724F08F
:1003A600EFEFF0E0EE83FF83AE81BF81A130EFEF88
:1003B600BE0724F4E1E0FFEFEE83FF83A895A88152
:1003C600B9810E94DF0634F4A8959098E881ECBFC5
:1003D600A8950BC0A881B9810E94DF0634F0A895C4
:1003E600909AE881E150ECBFA895AA81BB810E9452
:1003F600DF0644F4A8959198EA81FB81F9BDE8BD32
:10040600A8950EC0AA81BB810E94DF064CF0A89574
:10041600919AEA81FB81E150FF4FF9BDE8BDA895AD
:10042600AC81BD810E94DF0644F4A8959298EC81C8
:10043600FD81FBBDEABDA8950EC0AC81BD810E94C1
:10044600DF064CF0A895929AEC81FD81E150FF4FB2
:10045600FBBDEABDA895AE81BF810E94DF0634F4DC
:10046600A8959398EE81E3BDA8950BC0AE81BF8198
:100476000E94DF0634F0A895939AEE81E150E3BD21
:10048600A89528960895E0E0EBBBEABBE8BBECEF45
:10049600E7BBE0E0E5BBE4BBE2BBEFEFE1BBEBE6CD
:1004A600E3BFE0E0E2BFECBFE1EAEFBDEBE0EEBDAB
:1004B600E0E0EDBDECBDE7BDE6BDEBBDEABDE9BDE7
:1004C600E8BDE2BDECE6E5BDE0E0E4BDE3BDE5BFC9
:1004D600E4BFE9BFE0E8E8B9E0E0E0BFE0E4E7B99F
:1004E600E3E8E6B90E941C06E0E1EA930E940E05E5
:1004F600ECE1E1BDECE0E1BD9B9B11C0A895E1E01C
:10050600EA930E945F00A0E0B0E0F0E00E94C60619
:10051600E8EEF3E0FA93EA930E946E06A895F501D9
:10052600E80DF91DE0936001F0936101A895E1E003
:10053600EA930E945F000E2E1124A0E0B0E00E9414
:10054600B606D001AE1BBF0B2D010024401450048B
:1005560024F4F201E150FF4F2F01E0E8F0E0E4154A
:10056600F50524F4EFEFF0E04E1A5F0AE0E8F0E05C
:100576004E165F060CF42201A89500244014500480
:1005860064F0A895E8E00E946005D2010E9480050B
:10059600D2010E948305A89511C0A895E8E00E94A3
:1005A6006005F2010E947A06DF010E948005F201D1
:1005B6000E947A06DF010E948305A895E2EEFFEF0E
:1005C600E415F5052CF4EEE1F0E04E165F060CF0AE
:1005D60006C0F2010E947A06EE0FFF1F03C0F20169
:1005E6000E947A062F01A8950E948900F501E81954
:1005F600F9096F01A8950E949505A935E2E0BE07A5
:100606002CF00E9455050E949F050CF003C00E9425
:10061600A50532C00E949A05A935E2E0BE072CF076
:100626000E9455050E949F050CF003C00E94A50577
:1006360023C00E948B05A935E2E0BE072CF00E947C
:1006460055050E949F050CF003C00E94A50514C025
:100656000E949005A935E2E0BE072CF00E945505E0
:100666000E949F050CF003C00E94A50505C0E0E0AE
:10067600E0936A01E0936B01A895A0916A01B0919D
:100686006B01119799F4E8ECF0E06E167F061CF406
:100696000E94AC0502C00E94C505EC19FD09E40DD7
:1006A600F51DFA93EA930E94900111C10E94550527
:1006B6000E949F0534F4A0916A01B0916B011097D6
:1006C60009F0DFC0A895E0918C01F0918D0130977B
:1006D60029F40E94DE050E94E405C8C00E94EA05CE
:1006E600119751F40E94DE05F201E058FF4F0E9477
:1006F600E4050E94EF05BFC00E94EA05129751F477
:100706000E94DE05F201EF5FF0400E94E4050E94C0
:10071600F505B1C00E94EA05139751F4F201E058BD
:10072600FF4F0E94E4050E94EF050E94F505A3C055
:100736000E94EA05149749F4F20130960E94E405F6
:100746000E94FB050E94F50596C00E94EA051597D2
:1007560041F4F201E058F0400E94E4050E940006D0
:100766008AC00E94EA05169731F40E940606F20135
:10077600E150FF4F80C00E94EA05179759F4F20135
:10078600EF5FF0400E94EF050E940E06F201E0586E
:10079600FF4F71C00E94EA05189751F4F201EF5F0E
:1007A600F0400E94FB050E940E06F201309663C0DF
:1007B6000E94EA05199741F4F201E058F0400E94C0
:1007C600E4050E94000657C00E94EA051A9731F414
:1007D6000E940606F201E150FF4F4DC00E94EA0555
:1007E6001B9759F4F201EF5FF0400E94EF050E945B
:1007F6000E06F201E058FF4F3EC00E94EA051C9724
:1008060051F4F201EF5FF0400E94FB050E940E06D4
:10081600F201309630C00E94EA051D9771F4F2018C
:10082600EF5FF040FA93EA93F201E058FF4F0E941F
:100836000E06F201E058F0401EC00E94EA051E971F
:1008460049F4F201EF5FF0400E940E06F201E1501A
:10085600FF4F0CC00E94EA051F9789F4F201E05889
:10086600FF4F0E940E06F201E058F040FA93EA9319
:10087600F201EF5FF040FA93EA930E949001A89587
:1008860026C0A895E6E9F0E06E167F063CF40E94C5
:10089600AC05EC19FD09E40DF51D14C0EEE5F1E01B
:1008A600E615F7053CF40E94C505EC19FD09E40DB3
:1008B600F51D08C0F20130960E94FB050E94FB055B
:1008C6000E94FB05FA93EA930E949001A89527CE11
:1008D600FFCFFFE0FA95F1F70895A4B3AF70A4BB7C
:1008E600A99AA898F6DFAA9AF4DFA3B3AA98F1DF2B
:1008F600AA9AEFDFAA98A7FDF5CF0895A07FAB2BA4
:10090600A5BBAA9A0E946C04AA980E946C0408953A
:10091600A998A4B3A76FA4BBB5B3BF70A881EEDF37
:10092600A881A295EBDFA99A0C943B05AA9A0E948E
:100936006C04E3B3AA980E946C04E07F08950E94B9
:100946006C04F4DFAE2FF2DFA998E295EA2B089546
:100956000E947004E881F0E0E057FE4FE081A98133
:10096600EA0FEA930E948B04E981E0939401E881FF
:10097600E0939501229608950E947004E2E0EA93BE
:100986000E948B040E947004ECE0EA930E948B04A0
:100996000E947004E1E0EA930E948B04E0E0E09399
:1009A6009501E09394010895EF93FF93A8816894CD
:1009B600AA3039F0E894E0919601A0919401AE171F
:1009C60060F0E0919501EF5FE0939501E0E0EA9336
:1009D600E0919501EA93BCDF56F0E0919401EF5F58
:1009E600E09394017ADFA89AA881AA9391DFFF91F8
:1009F600EF910C943B05AA27BB271197F1F70895B1
:100A0600A998A4B3A76FA4BBB5B3BF70A8810E9471
:100A16008104A99A2DC0AA98A898E881E093960126
:100A2600E058E0939201E881E054E0939301F6D018
:100A3600F5D0F4D0E0DFE0E2EA93E2DFDCDFE8E2E3
:100A4600F3D0E4E0F1D0E5E8EFD0A4B3AF70A4BBF7
:100A5600A99A0E94A204E53011F0E0E009C00E94C4
:100A66007004E6E0EA930E948B040E94BF04E1E072
:100A760021960895A0918E01B0918F010895E2E02C
:100A8600F0E00E949606E03008950E949106DF018C
:100A9600F6CFE0918E01F0918F01ACE6B1E0EE0F5A
:100AA600FF1F0895E0918C01F0918D01ACE6B1E055
:100AB600EE0FFF1FAE0FBF1F0895EA93E0E0EA9323
:100AC6000C94AB04A0918C01B0918D01EAE0F0E0AA
:100AD60008950E949106DF01EAE0F0E00E94960682
:100AE600E05DEA930C94D7040E949606E05DEA93D3
:100AF6000C94D704E4E6F0E0ECCFEAE0F0E0E9CFCE
:100B0600EAE0F0E0F1CFEA93E1E0EA930C94AB047B
:100B1600A0916801B09169010895A0916401B09116
:100B260065010895A0916201B09163010895A091B5
:100B36006601B091670108950E94B206EC3BA2E0FF
:100B4600FA070895E1E0F0E0E0936A01F0936B01A3
:100B56000895E1E0FFEFEC19FD09E40DF51DFA93A8
:100B6600EA93F601EF5FF040E40DF51DFA93EA9380
:100B7600F601E150FF4FE40DF51DFA93EA93EFEF0E
:100B8600F0E00895EFEFF0E0EC19FD09E40DF51D36
:100B9600FA93EA93F601E150FF4FE40DF51DFA933F
:100BA600EA93F601EF5FF040E40DF51DFA93EA9340
:100BB600E1E0FFEF0895F201E150FF4FFA93EA9367
:100BC6000895FA93EA93F201EF5FF0400895A09139
:100BD6008C01B0918D010895FA93EA93F201E058E1
:100BE600F0400895FA93EA93F201E150FF4F089519
:100BF600FA93EA93F20130960895FA93EA93F20192
:100C0600E058FF4FEFCFF201EF5FF040FA93EA931F
:100C1600FA93EA93D0CFFA93EA93CDCF0E94FE04DB
:100C2600E0E3EA930C940305EA930E948B040C9488
:100C3600FE04C198C098B99AB89815C0B898B998E2
:100C4600EE270000B09B0895B19B089504D0B89A92
:100C560002D0B99AE1E062E007C0B89AB99A03D027
:100C6600B998F9DFB89863E06A95F1F7089578E0E6
:100C7600B998F1DFB19BFECFEEDF8894B099089466
:100C8600B99AF1DFEE1F7A9599F77991772311F4E6
:100C9600B89801C0B89ADFDFB998E5DFB99ADBDF0B
:100CA600B898D9CFE99178E0EE0F10F4B89801C062
:100CB600B89AD9DFB998CFDFB19BFECFCCDFB99A0E
:100CC6007A9591F7B898C7DFB998CDDFE1E0B0998A
:100CD600EE27B99A0895E991F991309639F08AEF9D
:100CE60090E00197F1F7A8953197C9F70895F19526
:100CF600E195F04008950024112490E1AA0FBB1F4E
:100D0600001C111C0E1A1F0A18F40E0E1F1E01C01D
:100D1600A1609A9599F7FD01D001089512D0EBDFF5
:100D26000EF4E5DF0895E894B7FF04C0A095B095EA
:100D360011966894F7FDDBDFDEDFFD010EF4D7DFE9
:100D46000895E894F7FF02C0D2DF6894B7FF06C0A3
:100D5600A095B095119600F8039400FA0895ED91C8
:100D6600FC9111970895119602D0FE2F1197E199E3
:100D7600FECFFF93FFB7F894AEBBBFBBE09AEDB3CF
:100D8600FFBFFF91089507D01196EF93EF2F03D081
:100D9600EF9111970895E19B02C0A895FCCF9FB7EC
:100DA600F894AEBBBFBBE09A8DB3E81719F0EDBB64
:100DB600E29AE19A9FBF089500240A160B06089549
:00000001FF
