:0E0000000C9434000C9400000C9400000C943E
:10000E0000000C9400000C9400000C9400000C9462
:10001E0000000C9400000C9400000C9400000C9452
:10002E0000000C9400000C9400000C9400000C9442
:10003E0000000C9400000C9400000C9400000C9432
:10004E0000000C9400000000FF0080C004000A00B5
:10005E0054000200680158000000F894EE27ECBB33
:10006E00F1E0FBBFEBBFE5BF8DE0A2E0BB27ED9358
:10007E008A95E9F780E094E0A0E6ED930197E9F721
:10008E00EAE5F0E085919591009761F0A591B59123
:10009E0005901590BF01F00105900D920197E1F7C3
:1000AE00FB01F0CFEFE5EDBFE4E0EEBFC0E6D1E03F
:1000BE000C945B02AA93E881E064E7B98BE18A9520
:1000CE00F1F7369A349BFECF349AE4B1F5B10C9425
:1000DE006D05AA931A930E946F050E9431060E9425
:1000EE006F05A0EC0E947405A9810E9474050E9400
:1000FE0031060E946F05A1EC0E947405A0E00E94DB
:10010E004A061E2F0E946F050E9440060E946F0530
:10011E00E12F18810C94F204BA93AA93A8950E9429
:10012E007705AE81BF81EA0FFB1FEE83FF830E942E
:10013E007705AC81BD81EA0FFB1FEC83FD830E9426
:10014E007705AA81BB81EA0FFB1FEA83FB830E941E
:10015E007705A881B981EA0FFB1FE883F983AE8189
:10016E00BF81A030E1E0BE0724F0EFEFF0E0EE83B8
:10017E00FF83AC81BD81A030E1E0BE0724F0EFEF3C
:10018E00F0E0EC83FD83AA81BB81A030E1E0BE07E5
:10019E0024F0EFEFF0E0EA83FB83A881B981A03071
:1001AE00E1E0BE0724F0EFEFF0E0E883F983AE81E3
:1001BE00BF81A130EFEFBE0724F4E1E0FFEFEE8345
:1001CE00FF83AC81BD81A130EFEFBE0724F4E1E0E7
:1001DE00FFEFEC83FD83AA81BB81A130EFEFBE0759
:1001EE0024F4E1E0FFEFEA83FB83A881B981A1301B
:1001FE00EFEFBE0724F4E1E0FFEFE883F983A98176
:10020E00AA2322F0A8959098E88104C0A895909A08
:10021E00E881E150ECBFAB81AA232AF0A895919812
:10022E00EA81FB8106C0A895919AEA81FB81E15093
:10023E00FF4FF9BDE8BDAD81AA232AF0A89592988B
:10024E00EC81FD8106C0A895929AEC81FD81E1506A
:10025E00FF4FFBBDEABDAF81AA2322F0A89593986C
:10026E00EE8104C0A895939AEE81E150E3BD2896E5
:10027E000895A895EFEFF3E0E0936401F093650124
:10028E00E0E0E0936201E09363010E947C055097E9
:10029E000CF047C0A8950E947C05E8E0F0E00E94B3
:1002AE00810511F4C79801C0C79A0E947C05E4E04D
:1002BE00F0E00E94810511F4C69801C0C69A0E9412
:1002CE007C05E2E0F0E00E94810511F4C59801C0C2
:1002DE00C59AE0916201F0916301A1E0B0E00E9445
:1002EE00BE06E03011F4C49801C0C49AA0E0E2DE6C
:1002FE00DF01E0916401F0916501AE17BF0770F464
:10030E00A0E0D8DEE0936401F0936501E091620114
:10031E00F0916301E0936001F09361010E94890501
:10032E00B4CFE0E0EA93A0E00E94E0040E949105C1
:10033E000E9498050E9491050E94A305AAE30E94BF
:10034E0009050E94A905E8EEF3E00E9498050E94B7
:10035E00A9050E94AE050E94A9050E94B1050E9442
:10036E00A9050E94B405A1E0A5DE3F01A2E0A2DE30
:10037E002F01A3E09FDE4F01E0E00E94B705ACE441
:10038E000E940905D4010E94AE05D4010E94B10558
:10039E00D4010E94B405E5E00E94B705A2E40E94D4
:1003AE000905D3010E94AE05D3010E94B105D30108
:1003BE000E94B405EAE00E94B705A2E50E94090575
:1003CE00D2010E94AE05D2010E94B105D2010E9457
:1003DE00B405F401E419F509E0936601F0936701A1
:1003EE00A1E077DE0E2E1124A2E0B0E00E94D60628
:1003FE00DF01F001EA1BFB0B0E94BB050E94770593
:10040E00E138A0E0FA0734F00E947705EF5FF04084
:10041E000E94BB050E947705E038AFEFFA0734F46F
:10042E000E947705E150FF4F0E94BB05E8E0EA937A
:10043E00A0E00E94E004A1E0B0E00E94DA06EE2304
:10044E008AF0A895ABE20E9409050E947705DF01AC
:10045E000E94AE050E947705DF010E94B1050E9441
:10046E00770516C0A895ADE20E9409050E94770592
:10047E000E948706DF010E94AE050E9477050E944A
:10048E008706DF010E94B1050E9477050E9487064C
:10049E00DF010E94B4050E947705AEEFBFEF0E9408
:1004AE0093060E94BB050895A895E0E0EABBEBBB5E
:1004BE00E8EFE7BBE0E0E8BBE4BBE5BBEFEFE1BB99
:1004CE00E0E0E2BBECE6E3BFE0E0E2BFECBFE1EA76
:1004DE00EFBDECE0EEBDE0E0EDBDECBDE7BDE6BD91
:1004EE00EBBDEABDE9BDE8BDE2BDEEE6E5BDE0E08F
:1004FE00E4BDE3BDE9BFE5BFE4BFEAB9E0E8E8B9B2
:10050E00E0E4E7B9E7E8E6B9E0E0E0BFEDB9E6BF61
:10051E000E942C06A0E10E944105ECE0E1BDA8EB93
:10052E00BBE00E947D06A8959B9B08C0A1E00E949F
:10053E007000A2E0B0E0F0E00E94E6069ADE0E94B3
:10054E00A905A132E3E0BE070CF0A8C1A8950E9450
:10055E00C005B4F0E1E0F0E05F01E0E0E09362019D
:10056E00E09363010E947C05A83CE0E0BE0744F4E2
:10057E000E94C7050E949300A8950E948905F2CF9C
:10058E00E1E0F0E0EA15FB0559F40E94D20515975B
:10059E0024F00E94D2051C971CF00E94D7050CF087
:1005AE0013C0A89566DE0E94C0051CF00E94C70508
:1005BE0008C00E94DC050E94DC050E94DC05A0E05C
:1005CE00B0E00E949300DCCFEAEFF0E0E615F7050D
:1005DE00BCF40E94D20514979CF00E94D2051D9780
:1005EE007CF40E94D70564F4E8ECF0E0E815F90518
:1005FE001CF0E415F50524F400240A140B0409F08C
:10060E0018C0A8950E94E105E615F7053CF40E9476
:10061E00E6050E94EB050E94F10508C00E94DC056C
:10062E000E94DC050E94DC05A0E0B0E00E94930071
:10063E00CBCFEAEFF0E0E415F5057CF4A091610173
:10064E00AA235AF00E94D20519973CF40E94D705AE
:10065E0024F400240A140B0409F017C0A8950E9474
:10066E00E105E415F50534F40E94EB050E94E6055C
:10067E00DF0108C00E94DC050E94DC050E94DC053B
:10068E00A0E0B0E00E949300D4CFEAEFF0E0E815CE
:10069E00F9057CF40E94D205189724F40E94D20525
:1006AE00109739F40E94D70524F400240A140B0481
:1006BE0009F019C0A8950E94E105E815F90544F462
:1006CE00DA92CA920E94EB050E94EB05D60108C091
:1006DE000E94DC050E94DC050E94DC05A0E0B0E073
:1006EE000E949300D2CFAA24BB24E0916001F09126
:1006FE006101309739F40E94E6050E94EB050E94D5
:10070E00F105C9C00E94D205119779F4DA92CA9206
:10071E000E94F1050E94F605FA93EA930E94EB05FA
:10072E00D6010E94F605DF01B6C00E94D2051297CF
:10073E0041F4DA92CA920E94EB050E94EB05D601B3
:10074E00AAC00E94D205139769F4D6010E94F6053D
:10075E00DF01FA93EA930E94EB05FD01FA93EA9307
:10076E00D60199C00E94D205149741F40E94DC056F
:10077E000E94EB050E94DC05D6018DC00E94D205B9
:10078E00159751F40E94F1050E94F6050E94FB0593
:10079E00FA93EA93D6017FC00E94D205169719F4F8
:1007AE000E94C70578C00E94D205179749F40E948F
:1007BE00EB05DF010E94F6050E940106DF016BC00A
:1007CE000E94D205189741F40E94DC050E94EB05A9
:1007DE000E94DC05D6015FC00E94D205199751F424
:1007EE000E94F1050E94F6050E94FB05FA93EA931A
:1007FE00D60151C00E94D2051A9719F40E94C7055E
:10080E004AC00E94D2051B9749F40E94EB05DF01F6
:10081E000E94F6050E940106DF013DC00E94D2052E
:10082E001C9749F40E94EB050E94DC05DA92CA92ED
:10083E00A0E0B0E030C00E94D2051D9791F4F60101
:10084E000E948706BF01FA93EA93D6010E94F6052D
:10085E00FA93EA93DA92CA92DB010E94F605DF015F
:10086E001AC00E94D2051E9731F40E94EB050E9419
:10087E00E605DF0110C00E94D2051F9771F4F60144
:10088E000E948706BF01DF010E94F6050E94010645
:10089E00FA93EA93DB010E94930049C0A8950E9447
:1008AE000706EE0FFF1FE0936601F0936701E8EC79
:1008BE00F0E06E167F06A4F4F6010E9487060F0183
:1008CE000E940C06EA0FFB1FFA93EA93D0010E94D6
:1008DE0011060E9417060E940C06AC0DBD1D25C008
:1008EE00E0E9F1E0E615F705B4F40E940706EC0D19
:1008FE00FD1DFA93EA930E941706F6010E948706E1
:10090E00DF010E941106F6010E9487060E940C0666
:10091E00AE0FBF1F0AC00E9407060E941E060E944D
:10092E001E06FA93EA930E940C060E949300FBCDDA
:10093E00FFCFFFE0FA95F1F70895A4B3AF70A4BB13
:10094E00A99AA898F6DFAA9AF4DFA3B3AA98F1DFC2
:10095E00AA9AEFDFAA98A7FDF5CF0895A07FAB2B3B
:10096E00A5BBAA9A0E94A004AA980E94A00408956A
:10097E00AA93A998A4B3A76FA4BBB5B3BF70A8815F
:10098E00EDDFA881A295EADFA99A0C946D05AA9ACB
:10099E000E94A004E3B3AA980E94A004E07F0895E9
:1009AE000E94A004F4DFAE2FF2DFA998E295EA2BA5
:1009BE000895AA930E94A404E881F0E0E859FE4F3E
:1009CE00E081A981AE0F0E94BF04E981E0936C0122
:1009DE00E881E0936D01229608950E94A404A2E09E
:1009EE000E94BF040E94A404ACE00E94BF040E94B7
:1009FE00A404A1E00E94BF04E0E0E0936D01E09347
:100A0E006C010895AA93EF93FF93A8816894AA307E
:100A1E0039F0E894E0916E01A0916C01AE1758F098
:100A2E00E0916D01EF5FE0936D01E0E0EA93A0913C
:100A3E006D01BFDF56F0E0916C01EF5FE0936C014A
:100A4E007CDFA89AA8810E94BF04FF91EF910C94BD
:100A5E006D05AA27BB271197F1F70895AA93A998B8
:100A6E00A4B3A76FA4BBB5B3BF70A8810E94B50491
:100A7E00A99A2CC0AA93AA98A898E881E0936E012F
:100A8E00E058E0936A01E881E054E0936B01D5D021
:100A9E00D4D0D3D0DEDFA0E2E1DFDBDFA8E2D1D01D
:100AAE00A4E0CFD0A5E8CDD0A4B3AF70A4BBA99AD3
:100ABE000E94D704E53011F0E0E008C00E94A404C3
:100ACE00A6E00E94BF040E94F404E1E0219608957E
:100ADE0088EC90E00197F1F708950E946506F8CF33
:100AEE00A0E0B0E00E94D6060895A0916201B091F8
:100AFE00630108950E94AB06A1E0B0E00E94BE061D
:100B0E00E0300895A2E6B1E0ED91FD913196FE93AD
:100B1E00EE930895A0916001B0916101EAE0F0E0DA
:100B2E0008950E94AB06DF01EAE0F0E00E94B006F5
:100B3E00E05DAE2F0C9409050E94B006E05DAE2F6D
:100B4E000C940905A0916401B09165010895E4E645
:100B5E00F0E0E7CFEAE0F0E0E4CFEAE0F0E0ECCF5F
:100B6E00EA93A1E00C94E004A0E0B0E00E94E60657
:100B7E000895D401A40DB51DAD3BE2E0BE07089566
:100B8E00F6010E948706FA93EA93FA93EA93DA92B1
:100B9E00CA92D6010895A0916001B09161010895A5
:100BAE00D1DFA032E3E0BE070895E0E0F0E0FA9373
:100BBE00EA9308950E944001E0E9F1E00895DA9287
:100BCE00CA92DA92CA920895F6010E948706FA93A3
:100BDE00EA930895F6010E948706DF010895E2E088
:100BEE00F0E00E94AB060895FA93EA93FA93EA9323
:100BFE00D601F5CFFA93EA93DA92CA92D601EFCFE5
:100C0E00E0916601F09167010895A0916601B0919F
:100C1E0067010895F5DFAE1BBF0BBA93AA93089533
:100C2E00F4DFF601EA1BFB0BFA93EA930895FA93AD
:100C3E00EA93E6DF0E94870608950E943005A0E33E
:100C4E000DCF0E94BF040C943005C098C198B89A7D
:100C5E00B99815C0B998B898EE270000B19B0895C1
:100C6E00B09B089504D0B99A02D0B89AE1E06DE035
:100C7E0007C0B99AB89A03D0B898F9DFB9986BE162
:100C8E006A95F1F7089578E0B898F1DFB09BFECF42
:100C9E00EEDF8894B1990894B89AF1DFEE1F7A9539
:100CAE0099F77A2F772311F4B99801C0B99ADFDF3B
:100CBE00B898E5DFB89ADBDFB998D9CF78E0AA0FFC
:100CCE0010F4B99801C0B99ADADFB898D0DFB09BAA
:100CDE00FECFCDDFB89A7A9591F7B998C8DFB8985C
:100CEE00CEDFE1E0B199EE27B89AC1CF109639F078
:100CFE0080ED97E00197F1F7A8951197C9F7089540
:100D0E00F195E195F0400895FA9FF02DEB9FF00DCF
:100D1E00EA9FE02DF10D089534D0F6DF0EF4F0DFEA
:100D2E0008950024112490E1AA0FBB1F001C111C72
:100D3E000E1A1F0A18F40E0E1F1E01C0A1609A95FE
:100D4E0099F7FD01D00108951CD0EBDF0EF4D8DF2A
:100D5E000895E894B7FF04C0A095B09511966894D5
:100D6E00F7FDCEDFDEDFFD010EF4CADF0895E89455
:100D7E00F7FF02C0C5DF6894EA23FB230EF4C0DF41
:100D8E000895E894F7FF02C0BBDF6894B7FF06C072
:100D9E00A095B095119600F8039400FA0895119657
:100DAE0002D0FE2F1197E199FECFFF93FFB7F89473
:100DBE00AEBBBFBBE09AEDB3FFBFFF91089507D066
:100DCE001196EF93EF2F03D0EF9111970895E19BBA
:100DDE0002C0A895FCCF9FB7F894AEBBBFBBE09AFC
:100DEE008DB3E81719F0EDBBE29AE19A9FBF089513
:00000001FF
